{
	"contracts/Mini-Bank-Contract.sol": {
		"bank": {
			"abi": [
				{
					"inputs": [],
					"stateMutability": "nonpayable",
					"type": "constructor"
				},
				{
					"anonymous": false,
					"inputs": [
						{
							"indexed": false,
							"internalType": "uint256",
							"name": "amount",
							"type": "uint256"
						},
						{
							"indexed": false,
							"internalType": "address",
							"name": "depositedTo",
							"type": "address"
						}
					],
					"name": "balanceAdded",
					"type": "event"
				},
				{
					"inputs": [
						{
							"internalType": "uint256",
							"name": "_toAdd",
							"type": "uint256"
						}
					],
					"name": "addBalance",
					"outputs": [
						{
							"internalType": "uint256",
							"name": "",
							"type": "uint256"
						}
					],
					"stateMutability": "nonpayable",
					"type": "function"
				},
				{
					"inputs": [
						{
							"internalType": "address",
							"name": "",
							"type": "address"
						}
					],
					"name": "balance",
					"outputs": [
						{
							"internalType": "uint256",
							"name": "",
							"type": "uint256"
						}
					],
					"stateMutability": "view",
					"type": "function"
				},
				{
					"inputs": [
						{
							"internalType": "address",
							"name": "reciver",
							"type": "address"
						},
						{
							"internalType": "uint256",
							"name": "amount",
							"type": "uint256"
						}
					],
					"name": "transfer",
					"outputs": [],
					"stateMutability": "nonpayable",
					"type": "function"
				}
			],
			"devdoc": {
				"kind": "dev",
				"methods": {},
				"version": 1
			},
			"evm": {
				"assembly": "    /* \"contracts/Mini-Bank-Contract.sol\":60:1034  contract bank{... */\n  mstore(0x40, 0x80)\n    /* \"contracts/Mini-Bank-Contract.sol\":255:305  constructor(){... */\n  callvalue\n  dup1\n  iszero\n  tag_1\n  jumpi\n  0x00\n  dup1\n  revert\ntag_1:\n  pop\n    /* \"contracts/Mini-Bank-Contract.sol\":287:297  msg.sender */\n  caller\n    /* \"contracts/Mini-Bank-Contract.sol\":279:284  owner */\n  0x01\n  0x00\n    /* \"contracts/Mini-Bank-Contract.sol\":279:297  owner = msg.sender */\n  0x0100\n  exp\n  dup2\n  sload\n  dup2\n  0xffffffffffffffffffffffffffffffffffffffff\n  mul\n  not\n  and\n  swap1\n  dup4\n  0xffffffffffffffffffffffffffffffffffffffff\n  and\n  mul\n  or\n  swap1\n  sstore\n  pop\n    /* \"contracts/Mini-Bank-Contract.sol\":60:1034  contract bank{... */\n  dataSize(sub_0)\n  dup1\n  dataOffset(sub_0)\n  0x00\n  codecopy\n  0x00\n  return\nstop\n\nsub_0: assembly {\n        /* \"contracts/Mini-Bank-Contract.sol\":60:1034  contract bank{... */\n      mstore(0x40, 0x80)\n      callvalue\n      dup1\n      iszero\n      tag_1\n      jumpi\n      0x00\n      dup1\n      revert\n    tag_1:\n      pop\n      jumpi(tag_2, lt(calldatasize, 0x04))\n      shr(0xe0, calldataload(0x00))\n      dup1\n      0xa9059cbb\n      eq\n      tag_3\n      jumpi\n      dup1\n      0xd91921ed\n      eq\n      tag_4\n      jumpi\n      dup1\n      0xe3d670d7\n      eq\n      tag_5\n      jumpi\n    tag_2:\n      0x00\n      dup1\n      revert\n        /* \"contracts/Mini-Bank-Contract.sol\":582:1029  function transfer(address reciver, uint amount) public onlyowner{... */\n    tag_3:\n      tag_6\n      0x04\n      dup1\n      calldatasize\n      sub\n      dup2\n      add\n      swap1\n      tag_7\n      swap2\n      swap1\n      tag_8\n      jump\t// in\n    tag_7:\n      tag_9\n      jump\t// in\n    tag_6:\n      stop\n        /* \"contracts/Mini-Bank-Contract.sol\":378:568  function addBalance(uint _toAdd) public returns (uint) {... */\n    tag_4:\n      tag_10\n      0x04\n      dup1\n      calldatasize\n      sub\n      dup2\n      add\n      swap1\n      tag_11\n      swap2\n      swap1\n      tag_12\n      jump\t// in\n    tag_11:\n      tag_13\n      jump\t// in\n    tag_10:\n      mload(0x40)\n      tag_14\n      swap2\n      swap1\n      tag_15\n      jump\t// in\n    tag_14:\n      mload(0x40)\n      dup1\n      swap2\n      sub\n      swap1\n      return\n        /* \"contracts/Mini-Bank-Contract.sol\":80:120  mapping(address => uint) public  balance */\n    tag_5:\n      tag_16\n      0x04\n      dup1\n      calldatasize\n      sub\n      dup2\n      add\n      swap1\n      tag_17\n      swap2\n      swap1\n      tag_18\n      jump\t// in\n    tag_17:\n      tag_19\n      jump\t// in\n    tag_16:\n      mload(0x40)\n      tag_20\n      swap2\n      swap1\n      tag_15\n      jump\t// in\n    tag_20:\n      mload(0x40)\n      dup1\n      swap2\n      sub\n      swap1\n      return\n        /* \"contracts/Mini-Bank-Contract.sol\":582:1029  function transfer(address reciver, uint amount) public onlyowner{... */\n    tag_9:\n        /* \"contracts/Mini-Bank-Contract.sol\":193:203  msg.sender */\n      caller\n        /* \"contracts/Mini-Bank-Contract.sol\":184:203  owner == msg.sender */\n      0xffffffffffffffffffffffffffffffffffffffff\n      and\n        /* \"contracts/Mini-Bank-Contract.sol\":184:189  owner */\n      0x01\n      0x00\n      swap1\n      sload\n      swap1\n      0x0100\n      exp\n      swap1\n      div\n      0xffffffffffffffffffffffffffffffffffffffff\n      and\n        /* \"contracts/Mini-Bank-Contract.sol\":184:203  owner == msg.sender */\n      0xffffffffffffffffffffffffffffffffffffffff\n      and\n      eq\n        /* \"contracts/Mini-Bank-Contract.sol\":176:229  require(owner == msg.sender, \"Yor are not the owner\") */\n      tag_22\n      jumpi\n      mload(0x40)\n      0x08c379a000000000000000000000000000000000000000000000000000000000\n      dup2\n      mstore\n      0x04\n      add\n      tag_23\n      swap1\n      tag_24\n      jump\t// in\n    tag_23:\n      mload(0x40)\n      dup1\n      swap2\n      sub\n      swap1\n      revert\n    tag_22:\n        /* \"contracts/Mini-Bank-Contract.sol\":688:694  amount */\n      dup1\n        /* \"contracts/Mini-Bank-Contract.sol\":665:672  balance */\n      0x00\n        /* \"contracts/Mini-Bank-Contract.sol\":665:684  balance[msg.sender] */\n      dup1\n        /* \"contracts/Mini-Bank-Contract.sol\":673:683  msg.sender */\n      caller\n        /* \"contracts/Mini-Bank-Contract.sol\":665:684  balance[msg.sender] */\n      0xffffffffffffffffffffffffffffffffffffffff\n      and\n      0xffffffffffffffffffffffffffffffffffffffff\n      and\n      dup2\n      mstore\n      0x20\n      add\n      swap1\n      dup2\n      mstore\n      0x20\n      add\n      0x00\n      keccak256\n      sload\n        /* \"contracts/Mini-Bank-Contract.sol\":665:694  balance[msg.sender] >= amount */\n      lt\n      iszero\n        /* \"contracts/Mini-Bank-Contract.sol\":657:738  require(balance[msg.sender] >= amount, \"!!!!!!!!!!!!Not enough Balance!!!!!!!!!\") */\n      tag_26\n      jumpi\n      mload(0x40)\n      0x08c379a000000000000000000000000000000000000000000000000000000000\n      dup2\n      mstore\n      0x04\n      add\n      tag_27\n      swap1\n      tag_28\n      jump\t// in\n    tag_27:\n      mload(0x40)\n      dup1\n      swap2\n      sub\n      swap1\n      revert\n    tag_26:\n        /* \"contracts/Mini-Bank-Contract.sol\":771:778  reciver */\n      dup2\n        /* \"contracts/Mini-Bank-Contract.sol\":757:778  msg.sender != reciver */\n      0xffffffffffffffffffffffffffffffffffffffff\n      and\n        /* \"contracts/Mini-Bank-Contract.sol\":757:767  msg.sender */\n      caller\n        /* \"contracts/Mini-Bank-Contract.sol\":757:778  msg.sender != reciver */\n      0xffffffffffffffffffffffffffffffffffffffff\n      and\n      sub\n        /* \"contracts/Mini-Bank-Contract.sol\":749:833  require(msg.sender != reciver, \"You are using same address. Change sender address.\") */\n      tag_29\n      jumpi\n      mload(0x40)\n      0x08c379a000000000000000000000000000000000000000000000000000000000\n      dup2\n      mstore\n      0x04\n      add\n      tag_30\n      swap1\n      tag_31\n      jump\t// in\n    tag_30:\n      mload(0x40)\n      dup1\n      swap2\n      sub\n      swap1\n      revert\n    tag_29:\n        /* \"contracts/Mini-Bank-Contract.sol\":846:861  uint preBalance */\n      0x00\n        /* \"contracts/Mini-Bank-Contract.sol\":864:871  balance */\n      dup1\n        /* \"contracts/Mini-Bank-Contract.sol\":864:883  balance[msg.sender] */\n      0x00\n        /* \"contracts/Mini-Bank-Contract.sol\":872:882  msg.sender */\n      caller\n        /* \"contracts/Mini-Bank-Contract.sol\":864:883  balance[msg.sender] */\n      0xffffffffffffffffffffffffffffffffffffffff\n      and\n      0xffffffffffffffffffffffffffffffffffffffff\n      and\n      dup2\n      mstore\n      0x20\n      add\n      swap1\n      dup2\n      mstore\n      0x20\n      add\n      0x00\n      keccak256\n      sload\n        /* \"contracts/Mini-Bank-Contract.sol\":846:883  uint preBalance = balance[msg.sender] */\n      swap1\n      pop\n        /* \"contracts/Mini-Bank-Contract.sol\":917:923  amount */\n      dup2\n        /* \"contracts/Mini-Bank-Contract.sol\":894:901  balance */\n      0x00\n        /* \"contracts/Mini-Bank-Contract.sol\":894:913  balance[msg.sender] */\n      dup1\n        /* \"contracts/Mini-Bank-Contract.sol\":902:912  msg.sender */\n      caller\n        /* \"contracts/Mini-Bank-Contract.sol\":894:913  balance[msg.sender] */\n      0xffffffffffffffffffffffffffffffffffffffff\n      and\n      0xffffffffffffffffffffffffffffffffffffffff\n      and\n      dup2\n      mstore\n      0x20\n      add\n      swap1\n      dup2\n      mstore\n      0x20\n      add\n      0x00\n      keccak256\n      0x00\n        /* \"contracts/Mini-Bank-Contract.sol\":894:923  balance[msg.sender] -= amount */\n      dup3\n      dup3\n      sload\n      tag_32\n      swap2\n      swap1\n      tag_33\n      jump\t// in\n    tag_32:\n      swap3\n      pop\n      pop\n      dup2\n      swap1\n      sstore\n      pop\n        /* \"contracts/Mini-Bank-Contract.sol\":954:960  amount */\n      dup2\n        /* \"contracts/Mini-Bank-Contract.sol\":934:941  balance */\n      0x00\n        /* \"contracts/Mini-Bank-Contract.sol\":934:950  balance[reciver] */\n      dup1\n        /* \"contracts/Mini-Bank-Contract.sol\":942:949  reciver */\n      dup6\n        /* \"contracts/Mini-Bank-Contract.sol\":934:950  balance[reciver] */\n      0xffffffffffffffffffffffffffffffffffffffff\n      and\n      0xffffffffffffffffffffffffffffffffffffffff\n      and\n      dup2\n      mstore\n      0x20\n      add\n      swap1\n      dup2\n      mstore\n      0x20\n      add\n      0x00\n      keccak256\n      0x00\n        /* \"contracts/Mini-Bank-Contract.sol\":934:960  balance[reciver] += amount */\n      dup3\n      dup3\n      sload\n      tag_34\n      swap2\n      swap1\n      tag_35\n      jump\t// in\n    tag_34:\n      swap3\n      pop\n      pop\n      dup2\n      swap1\n      sstore\n      pop\n        /* \"contracts/Mini-Bank-Contract.sol\":1014:1020  amount */\n      dup2\n        /* \"contracts/Mini-Bank-Contract.sol\":1001:1011  preBalance */\n      dup2\n        /* \"contracts/Mini-Bank-Contract.sol\":1001:1020  preBalance - amount */\n      tag_36\n      swap2\n      swap1\n      tag_33\n      jump\t// in\n    tag_36:\n        /* \"contracts/Mini-Bank-Contract.sol\":978:985  balance */\n      0x00\n        /* \"contracts/Mini-Bank-Contract.sol\":978:997  balance[msg.sender] */\n      dup1\n        /* \"contracts/Mini-Bank-Contract.sol\":986:996  msg.sender */\n      caller\n        /* \"contracts/Mini-Bank-Contract.sol\":978:997  balance[msg.sender] */\n      0xffffffffffffffffffffffffffffffffffffffff\n      and\n      0xffffffffffffffffffffffffffffffffffffffff\n      and\n      dup2\n      mstore\n      0x20\n      add\n      swap1\n      dup2\n      mstore\n      0x20\n      add\n      0x00\n      keccak256\n      sload\n        /* \"contracts/Mini-Bank-Contract.sol\":978:1020  balance[msg.sender] == preBalance - amount */\n      eq\n        /* \"contracts/Mini-Bank-Contract.sol\":971:1021  assert(balance[msg.sender] == preBalance - amount) */\n      tag_37\n      jumpi\n      tag_38\n      tag_39\n      jump\t// in\n    tag_38:\n    tag_37:\n        /* \"contracts/Mini-Bank-Contract.sol\":646:1029  {... */\n      pop\n        /* \"contracts/Mini-Bank-Contract.sol\":582:1029  function transfer(address reciver, uint amount) public onlyowner{... */\n      pop\n      pop\n      jump\t// out\n        /* \"contracts/Mini-Bank-Contract.sol\":378:568  function addBalance(uint _toAdd) public returns (uint) {... */\n    tag_13:\n        /* \"contracts/Mini-Bank-Contract.sol\":427:431  uint */\n      0x00\n        /* \"contracts/Mini-Bank-Contract.sol\":467:473  _toAdd */\n      dup2\n        /* \"contracts/Mini-Bank-Contract.sol\":444:451  balance */\n      0x00\n        /* \"contracts/Mini-Bank-Contract.sol\":444:463  balance[msg.sender] */\n      dup1\n        /* \"contracts/Mini-Bank-Contract.sol\":452:462  msg.sender */\n      caller\n        /* \"contracts/Mini-Bank-Contract.sol\":444:463  balance[msg.sender] */\n      0xffffffffffffffffffffffffffffffffffffffff\n      and\n      0xffffffffffffffffffffffffffffffffffffffff\n      and\n      dup2\n      mstore\n      0x20\n      add\n      swap1\n      dup2\n      mstore\n      0x20\n      add\n      0x00\n      keccak256\n      0x00\n        /* \"contracts/Mini-Bank-Contract.sol\":444:473  balance[msg.sender] += _toAdd */\n      dup3\n      dup3\n      sload\n      tag_41\n      swap2\n      swap1\n      tag_35\n      jump\t// in\n    tag_41:\n      swap3\n      pop\n      pop\n      dup2\n      swap1\n      sstore\n      pop\n        /* \"contracts/Mini-Bank-Contract.sol\":489:521  balanceAdded(_toAdd, msg.sender) */\n      0xdb42e689d0c993b1eaac62924e67d96c365c40778a39beaaaf6865b061a93f32\n        /* \"contracts/Mini-Bank-Contract.sol\":502:508  _toAdd */\n      dup3\n        /* \"contracts/Mini-Bank-Contract.sol\":510:520  msg.sender */\n      caller\n        /* \"contracts/Mini-Bank-Contract.sol\":489:521  balanceAdded(_toAdd, msg.sender) */\n      mload(0x40)\n      tag_42\n      swap3\n      swap2\n      swap1\n      tag_43\n      jump\t// in\n    tag_42:\n      mload(0x40)\n      dup1\n      swap2\n      sub\n      swap1\n      log1\n        /* \"contracts/Mini-Bank-Contract.sol\":539:546  balance */\n      0x00\n        /* \"contracts/Mini-Bank-Contract.sol\":539:558  balance[msg.sender] */\n      dup1\n        /* \"contracts/Mini-Bank-Contract.sol\":547:557  msg.sender */\n      caller\n        /* \"contracts/Mini-Bank-Contract.sol\":539:558  balance[msg.sender] */\n      0xffffffffffffffffffffffffffffffffffffffff\n      and\n      0xffffffffffffffffffffffffffffffffffffffff\n      and\n      dup2\n      mstore\n      0x20\n      add\n      swap1\n      dup2\n      mstore\n      0x20\n      add\n      0x00\n      keccak256\n      sload\n        /* \"contracts/Mini-Bank-Contract.sol\":532:558  return balance[msg.sender] */\n      swap1\n      pop\n        /* \"contracts/Mini-Bank-Contract.sol\":378:568  function addBalance(uint _toAdd) public returns (uint) {... */\n      swap2\n      swap1\n      pop\n      jump\t// out\n        /* \"contracts/Mini-Bank-Contract.sol\":80:120  mapping(address => uint) public  balance */\n    tag_19:\n      mstore(0x20, 0x00)\n      dup1\n      0x00\n      mstore\n      keccak256(0x00, 0x40)\n      0x00\n      swap2\n      pop\n      swap1\n      pop\n      sload\n      dup2\n      jump\t// out\n        /* \"#utility.yul\":88:205   */\n    tag_45:\n        /* \"#utility.yul\":197:198   */\n      0x00\n        /* \"#utility.yul\":194:195   */\n      dup1\n        /* \"#utility.yul\":187:199   */\n      revert\n        /* \"#utility.yul\":334:460   */\n    tag_47:\n        /* \"#utility.yul\":371:378   */\n      0x00\n        /* \"#utility.yul\":411:453   */\n      0xffffffffffffffffffffffffffffffffffffffff\n        /* \"#utility.yul\":404:409   */\n      dup3\n        /* \"#utility.yul\":400:454   */\n      and\n        /* \"#utility.yul\":389:454   */\n      swap1\n      pop\n        /* \"#utility.yul\":334:460   */\n      swap2\n      swap1\n      pop\n      jump\t// out\n        /* \"#utility.yul\":466:562   */\n    tag_48:\n        /* \"#utility.yul\":503:510   */\n      0x00\n        /* \"#utility.yul\":532:556   */\n      tag_70\n        /* \"#utility.yul\":550:555   */\n      dup3\n        /* \"#utility.yul\":532:556   */\n      tag_47\n      jump\t// in\n    tag_70:\n        /* \"#utility.yul\":521:556   */\n      swap1\n      pop\n        /* \"#utility.yul\":466:562   */\n      swap2\n      swap1\n      pop\n      jump\t// out\n        /* \"#utility.yul\":568:690   */\n    tag_49:\n        /* \"#utility.yul\":641:665   */\n      tag_72\n        /* \"#utility.yul\":659:664   */\n      dup2\n        /* \"#utility.yul\":641:665   */\n      tag_48\n      jump\t// in\n    tag_72:\n        /* \"#utility.yul\":634:639   */\n      dup2\n        /* \"#utility.yul\":631:666   */\n      eq\n        /* \"#utility.yul\":621:684   */\n      tag_73\n      jumpi\n        /* \"#utility.yul\":680:681   */\n      0x00\n        /* \"#utility.yul\":677:678   */\n      dup1\n        /* \"#utility.yul\":670:682   */\n      revert\n        /* \"#utility.yul\":621:684   */\n    tag_73:\n        /* \"#utility.yul\":568:690   */\n      pop\n      jump\t// out\n        /* \"#utility.yul\":696:835   */\n    tag_50:\n        /* \"#utility.yul\":742:747   */\n      0x00\n        /* \"#utility.yul\":780:786   */\n      dup2\n        /* \"#utility.yul\":767:787   */\n      calldataload\n        /* \"#utility.yul\":758:787   */\n      swap1\n      pop\n        /* \"#utility.yul\":796:829   */\n      tag_75\n        /* \"#utility.yul\":823:828   */\n      dup2\n        /* \"#utility.yul\":796:829   */\n      tag_49\n      jump\t// in\n    tag_75:\n        /* \"#utility.yul\":696:835   */\n      swap3\n      swap2\n      pop\n      pop\n      jump\t// out\n        /* \"#utility.yul\":841:918   */\n    tag_51:\n        /* \"#utility.yul\":878:885   */\n      0x00\n        /* \"#utility.yul\":907:912   */\n      dup2\n        /* \"#utility.yul\":896:912   */\n      swap1\n      pop\n        /* \"#utility.yul\":841:918   */\n      swap2\n      swap1\n      pop\n      jump\t// out\n        /* \"#utility.yul\":924:1046   */\n    tag_52:\n        /* \"#utility.yul\":997:1021   */\n      tag_78\n        /* \"#utility.yul\":1015:1020   */\n      dup2\n        /* \"#utility.yul\":997:1021   */\n      tag_51\n      jump\t// in\n    tag_78:\n        /* \"#utility.yul\":990:995   */\n      dup2\n        /* \"#utility.yul\":987:1022   */\n      eq\n        /* \"#utility.yul\":977:1040   */\n      tag_79\n      jumpi\n        /* \"#utility.yul\":1036:1037   */\n      0x00\n        /* \"#utility.yul\":1033:1034   */\n      dup1\n        /* \"#utility.yul\":1026:1038   */\n      revert\n        /* \"#utility.yul\":977:1040   */\n    tag_79:\n        /* \"#utility.yul\":924:1046   */\n      pop\n      jump\t// out\n        /* \"#utility.yul\":1052:1191   */\n    tag_53:\n        /* \"#utility.yul\":1098:1103   */\n      0x00\n        /* \"#utility.yul\":1136:1142   */\n      dup2\n        /* \"#utility.yul\":1123:1143   */\n      calldataload\n        /* \"#utility.yul\":1114:1143   */\n      swap1\n      pop\n        /* \"#utility.yul\":1152:1185   */\n      tag_81\n        /* \"#utility.yul\":1179:1184   */\n      dup2\n        /* \"#utility.yul\":1152:1185   */\n      tag_52\n      jump\t// in\n    tag_81:\n        /* \"#utility.yul\":1052:1191   */\n      swap3\n      swap2\n      pop\n      pop\n      jump\t// out\n        /* \"#utility.yul\":1197:1671   */\n    tag_8:\n        /* \"#utility.yul\":1265:1271   */\n      0x00\n        /* \"#utility.yul\":1273:1279   */\n      dup1\n        /* \"#utility.yul\":1322:1324   */\n      0x40\n        /* \"#utility.yul\":1310:1319   */\n      dup4\n        /* \"#utility.yul\":1301:1308   */\n      dup6\n        /* \"#utility.yul\":1297:1320   */\n      sub\n        /* \"#utility.yul\":1293:1325   */\n      slt\n        /* \"#utility.yul\":1290:1409   */\n      iszero\n      tag_83\n      jumpi\n        /* \"#utility.yul\":1328:1407   */\n      tag_84\n      tag_45\n      jump\t// in\n    tag_84:\n        /* \"#utility.yul\":1290:1409   */\n    tag_83:\n        /* \"#utility.yul\":1448:1449   */\n      0x00\n        /* \"#utility.yul\":1473:1526   */\n      tag_85\n        /* \"#utility.yul\":1518:1525   */\n      dup6\n        /* \"#utility.yul\":1509:1515   */\n      dup3\n        /* \"#utility.yul\":1498:1507   */\n      dup7\n        /* \"#utility.yul\":1494:1516   */\n      add\n        /* \"#utility.yul\":1473:1526   */\n      tag_50\n      jump\t// in\n    tag_85:\n        /* \"#utility.yul\":1463:1526   */\n      swap3\n      pop\n        /* \"#utility.yul\":1419:1536   */\n      pop\n        /* \"#utility.yul\":1575:1577   */\n      0x20\n        /* \"#utility.yul\":1601:1654   */\n      tag_86\n        /* \"#utility.yul\":1646:1653   */\n      dup6\n        /* \"#utility.yul\":1637:1643   */\n      dup3\n        /* \"#utility.yul\":1626:1635   */\n      dup7\n        /* \"#utility.yul\":1622:1644   */\n      add\n        /* \"#utility.yul\":1601:1654   */\n      tag_53\n      jump\t// in\n    tag_86:\n        /* \"#utility.yul\":1591:1654   */\n      swap2\n      pop\n        /* \"#utility.yul\":1546:1664   */\n      pop\n        /* \"#utility.yul\":1197:1671   */\n      swap3\n      pop\n      swap3\n      swap1\n      pop\n      jump\t// out\n        /* \"#utility.yul\":1677:2006   */\n    tag_12:\n        /* \"#utility.yul\":1736:1742   */\n      0x00\n        /* \"#utility.yul\":1785:1787   */\n      0x20\n        /* \"#utility.yul\":1773:1782   */\n      dup3\n        /* \"#utility.yul\":1764:1771   */\n      dup5\n        /* \"#utility.yul\":1760:1783   */\n      sub\n        /* \"#utility.yul\":1756:1788   */\n      slt\n        /* \"#utility.yul\":1753:1872   */\n      iszero\n      tag_88\n      jumpi\n        /* \"#utility.yul\":1791:1870   */\n      tag_89\n      tag_45\n      jump\t// in\n    tag_89:\n        /* \"#utility.yul\":1753:1872   */\n    tag_88:\n        /* \"#utility.yul\":1911:1912   */\n      0x00\n        /* \"#utility.yul\":1936:1989   */\n      tag_90\n        /* \"#utility.yul\":1981:1988   */\n      dup5\n        /* \"#utility.yul\":1972:1978   */\n      dup3\n        /* \"#utility.yul\":1961:1970   */\n      dup6\n        /* \"#utility.yul\":1957:1979   */\n      add\n        /* \"#utility.yul\":1936:1989   */\n      tag_53\n      jump\t// in\n    tag_90:\n        /* \"#utility.yul\":1926:1989   */\n      swap2\n      pop\n        /* \"#utility.yul\":1882:1999   */\n      pop\n        /* \"#utility.yul\":1677:2006   */\n      swap3\n      swap2\n      pop\n      pop\n      jump\t// out\n        /* \"#utility.yul\":2012:2130   */\n    tag_54:\n        /* \"#utility.yul\":2099:2123   */\n      tag_92\n        /* \"#utility.yul\":2117:2122   */\n      dup2\n        /* \"#utility.yul\":2099:2123   */\n      tag_51\n      jump\t// in\n    tag_92:\n        /* \"#utility.yul\":2094:2097   */\n      dup3\n        /* \"#utility.yul\":2087:2124   */\n      mstore\n        /* \"#utility.yul\":2012:2130   */\n      pop\n      pop\n      jump\t// out\n        /* \"#utility.yul\":2136:2358   */\n    tag_15:\n        /* \"#utility.yul\":2229:2233   */\n      0x00\n        /* \"#utility.yul\":2267:2269   */\n      0x20\n        /* \"#utility.yul\":2256:2265   */\n      dup3\n        /* \"#utility.yul\":2252:2270   */\n      add\n        /* \"#utility.yul\":2244:2270   */\n      swap1\n      pop\n        /* \"#utility.yul\":2280:2351   */\n      tag_94\n        /* \"#utility.yul\":2348:2349   */\n      0x00\n        /* \"#utility.yul\":2337:2346   */\n      dup4\n        /* \"#utility.yul\":2333:2350   */\n      add\n        /* \"#utility.yul\":2324:2330   */\n      dup5\n        /* \"#utility.yul\":2280:2351   */\n      tag_54\n      jump\t// in\n    tag_94:\n        /* \"#utility.yul\":2136:2358   */\n      swap3\n      swap2\n      pop\n      pop\n      jump\t// out\n        /* \"#utility.yul\":2364:2693   */\n    tag_18:\n        /* \"#utility.yul\":2423:2429   */\n      0x00\n        /* \"#utility.yul\":2472:2474   */\n      0x20\n        /* \"#utility.yul\":2460:2469   */\n      dup3\n        /* \"#utility.yul\":2451:2458   */\n      dup5\n        /* \"#utility.yul\":2447:2470   */\n      sub\n        /* \"#utility.yul\":2443:2475   */\n      slt\n        /* \"#utility.yul\":2440:2559   */\n      iszero\n      tag_96\n      jumpi\n        /* \"#utility.yul\":2478:2557   */\n      tag_97\n      tag_45\n      jump\t// in\n    tag_97:\n        /* \"#utility.yul\":2440:2559   */\n    tag_96:\n        /* \"#utility.yul\":2598:2599   */\n      0x00\n        /* \"#utility.yul\":2623:2676   */\n      tag_98\n        /* \"#utility.yul\":2668:2675   */\n      dup5\n        /* \"#utility.yul\":2659:2665   */\n      dup3\n        /* \"#utility.yul\":2648:2657   */\n      dup6\n        /* \"#utility.yul\":2644:2666   */\n      add\n        /* \"#utility.yul\":2623:2676   */\n      tag_50\n      jump\t// in\n    tag_98:\n        /* \"#utility.yul\":2613:2676   */\n      swap2\n      pop\n        /* \"#utility.yul\":2569:2686   */\n      pop\n        /* \"#utility.yul\":2364:2693   */\n      swap3\n      swap2\n      pop\n      pop\n      jump\t// out\n        /* \"#utility.yul\":2699:2868   */\n    tag_55:\n        /* \"#utility.yul\":2783:2794   */\n      0x00\n        /* \"#utility.yul\":2817:2823   */\n      dup3\n        /* \"#utility.yul\":2812:2815   */\n      dup3\n        /* \"#utility.yul\":2805:2824   */\n      mstore\n        /* \"#utility.yul\":2857:2861   */\n      0x20\n        /* \"#utility.yul\":2852:2855   */\n      dup3\n        /* \"#utility.yul\":2848:2862   */\n      add\n        /* \"#utility.yul\":2833:2862   */\n      swap1\n      pop\n        /* \"#utility.yul\":2699:2868   */\n      swap3\n      swap2\n      pop\n      pop\n      jump\t// out\n        /* \"#utility.yul\":2874:3045   */\n    tag_56:\n        /* \"#utility.yul\":3014:3037   */\n      0x596f7220617265206e6f7420746865206f776e65720000000000000000000000\n        /* \"#utility.yul\":3010:3011   */\n      0x00\n        /* \"#utility.yul\":3002:3008   */\n      dup3\n        /* \"#utility.yul\":2998:3012   */\n      add\n        /* \"#utility.yul\":2991:3038   */\n      mstore\n        /* \"#utility.yul\":2874:3045   */\n      pop\n      jump\t// out\n        /* \"#utility.yul\":3051:3417   */\n    tag_57:\n        /* \"#utility.yul\":3193:3196   */\n      0x00\n        /* \"#utility.yul\":3214:3281   */\n      tag_102\n        /* \"#utility.yul\":3278:3280   */\n      0x15\n        /* \"#utility.yul\":3273:3276   */\n      dup4\n        /* \"#utility.yul\":3214:3281   */\n      tag_55\n      jump\t// in\n    tag_102:\n        /* \"#utility.yul\":3207:3281   */\n      swap2\n      pop\n        /* \"#utility.yul\":3290:3383   */\n      tag_103\n        /* \"#utility.yul\":3379:3382   */\n      dup3\n        /* \"#utility.yul\":3290:3383   */\n      tag_56\n      jump\t// in\n    tag_103:\n        /* \"#utility.yul\":3408:3410   */\n      0x20\n        /* \"#utility.yul\":3403:3406   */\n      dup3\n        /* \"#utility.yul\":3399:3411   */\n      add\n        /* \"#utility.yul\":3392:3411   */\n      swap1\n      pop\n        /* \"#utility.yul\":3051:3417   */\n      swap2\n      swap1\n      pop\n      jump\t// out\n        /* \"#utility.yul\":3423:3842   */\n    tag_24:\n        /* \"#utility.yul\":3589:3593   */\n      0x00\n        /* \"#utility.yul\":3627:3629   */\n      0x20\n        /* \"#utility.yul\":3616:3625   */\n      dup3\n        /* \"#utility.yul\":3612:3630   */\n      add\n        /* \"#utility.yul\":3604:3630   */\n      swap1\n      pop\n        /* \"#utility.yul\":3676:3685   */\n      dup2\n        /* \"#utility.yul\":3670:3674   */\n      dup2\n        /* \"#utility.yul\":3666:3686   */\n      sub\n        /* \"#utility.yul\":3662:3663   */\n      0x00\n        /* \"#utility.yul\":3651:3660   */\n      dup4\n        /* \"#utility.yul\":3647:3664   */\n      add\n        /* \"#utility.yul\":3640:3687   */\n      mstore\n        /* \"#utility.yul\":3704:3835   */\n      tag_105\n        /* \"#utility.yul\":3830:3834   */\n      dup2\n        /* \"#utility.yul\":3704:3835   */\n      tag_57\n      jump\t// in\n    tag_105:\n        /* \"#utility.yul\":3696:3835   */\n      swap1\n      pop\n        /* \"#utility.yul\":3423:3842   */\n      swap2\n      swap1\n      pop\n      jump\t// out\n        /* \"#utility.yul\":3848:4074   */\n    tag_58:\n        /* \"#utility.yul\":3988:4022   */\n      0x2121212121212121212121214e6f7420656e6f7567682042616c616e63652121\n        /* \"#utility.yul\":3984:3985   */\n      0x00\n        /* \"#utility.yul\":3976:3982   */\n      dup3\n        /* \"#utility.yul\":3972:3986   */\n      add\n        /* \"#utility.yul\":3965:4023   */\n      mstore\n        /* \"#utility.yul\":4057:4066   */\n      0x2121212121212100000000000000000000000000000000000000000000000000\n        /* \"#utility.yul\":4052:4054   */\n      0x20\n        /* \"#utility.yul\":4044:4050   */\n      dup3\n        /* \"#utility.yul\":4040:4055   */\n      add\n        /* \"#utility.yul\":4033:4067   */\n      mstore\n        /* \"#utility.yul\":3848:4074   */\n      pop\n      jump\t// out\n        /* \"#utility.yul\":4080:4446   */\n    tag_59:\n        /* \"#utility.yul\":4222:4225   */\n      0x00\n        /* \"#utility.yul\":4243:4310   */\n      tag_108\n        /* \"#utility.yul\":4307:4309   */\n      0x27\n        /* \"#utility.yul\":4302:4305   */\n      dup4\n        /* \"#utility.yul\":4243:4310   */\n      tag_55\n      jump\t// in\n    tag_108:\n        /* \"#utility.yul\":4236:4310   */\n      swap2\n      pop\n        /* \"#utility.yul\":4319:4412   */\n      tag_109\n        /* \"#utility.yul\":4408:4411   */\n      dup3\n        /* \"#utility.yul\":4319:4412   */\n      tag_58\n      jump\t// in\n    tag_109:\n        /* \"#utility.yul\":4437:4439   */\n      0x40\n        /* \"#utility.yul\":4432:4435   */\n      dup3\n        /* \"#utility.yul\":4428:4440   */\n      add\n        /* \"#utility.yul\":4421:4440   */\n      swap1\n      pop\n        /* \"#utility.yul\":4080:4446   */\n      swap2\n      swap1\n      pop\n      jump\t// out\n        /* \"#utility.yul\":4452:4871   */\n    tag_28:\n        /* \"#utility.yul\":4618:4622   */\n      0x00\n        /* \"#utility.yul\":4656:4658   */\n      0x20\n        /* \"#utility.yul\":4645:4654   */\n      dup3\n        /* \"#utility.yul\":4641:4659   */\n      add\n        /* \"#utility.yul\":4633:4659   */\n      swap1\n      pop\n        /* \"#utility.yul\":4705:4714   */\n      dup2\n        /* \"#utility.yul\":4699:4703   */\n      dup2\n        /* \"#utility.yul\":4695:4715   */\n      sub\n        /* \"#utility.yul\":4691:4692   */\n      0x00\n        /* \"#utility.yul\":4680:4689   */\n      dup4\n        /* \"#utility.yul\":4676:4693   */\n      add\n        /* \"#utility.yul\":4669:4716   */\n      mstore\n        /* \"#utility.yul\":4733:4864   */\n      tag_111\n        /* \"#utility.yul\":4859:4863   */\n      dup2\n        /* \"#utility.yul\":4733:4864   */\n      tag_59\n      jump\t// in\n    tag_111:\n        /* \"#utility.yul\":4725:4864   */\n      swap1\n      pop\n        /* \"#utility.yul\":4452:4871   */\n      swap2\n      swap1\n      pop\n      jump\t// out\n        /* \"#utility.yul\":4877:5114   */\n    tag_60:\n        /* \"#utility.yul\":5017:5051   */\n      0x596f7520617265207573696e672073616d6520616464726573732e204368616e\n        /* \"#utility.yul\":5013:5014   */\n      0x00\n        /* \"#utility.yul\":5005:5011   */\n      dup3\n        /* \"#utility.yul\":5001:5015   */\n      add\n        /* \"#utility.yul\":4994:5052   */\n      mstore\n        /* \"#utility.yul\":5086:5106   */\n      0x67652073656e64657220616464726573732e0000000000000000000000000000\n        /* \"#utility.yul\":5081:5083   */\n      0x20\n        /* \"#utility.yul\":5073:5079   */\n      dup3\n        /* \"#utility.yul\":5069:5084   */\n      add\n        /* \"#utility.yul\":5062:5107   */\n      mstore\n        /* \"#utility.yul\":4877:5114   */\n      pop\n      jump\t// out\n        /* \"#utility.yul\":5120:5486   */\n    tag_61:\n        /* \"#utility.yul\":5262:5265   */\n      0x00\n        /* \"#utility.yul\":5283:5350   */\n      tag_114\n        /* \"#utility.yul\":5347:5349   */\n      0x32\n        /* \"#utility.yul\":5342:5345   */\n      dup4\n        /* \"#utility.yul\":5283:5350   */\n      tag_55\n      jump\t// in\n    tag_114:\n        /* \"#utility.yul\":5276:5350   */\n      swap2\n      pop\n        /* \"#utility.yul\":5359:5452   */\n      tag_115\n        /* \"#utility.yul\":5448:5451   */\n      dup3\n        /* \"#utility.yul\":5359:5452   */\n      tag_60\n      jump\t// in\n    tag_115:\n        /* \"#utility.yul\":5477:5479   */\n      0x40\n        /* \"#utility.yul\":5472:5475   */\n      dup3\n        /* \"#utility.yul\":5468:5480   */\n      add\n        /* \"#utility.yul\":5461:5480   */\n      swap1\n      pop\n        /* \"#utility.yul\":5120:5486   */\n      swap2\n      swap1\n      pop\n      jump\t// out\n        /* \"#utility.yul\":5492:5911   */\n    tag_31:\n        /* \"#utility.yul\":5658:5662   */\n      0x00\n        /* \"#utility.yul\":5696:5698   */\n      0x20\n        /* \"#utility.yul\":5685:5694   */\n      dup3\n        /* \"#utility.yul\":5681:5699   */\n      add\n        /* \"#utility.yul\":5673:5699   */\n      swap1\n      pop\n        /* \"#utility.yul\":5745:5754   */\n      dup2\n        /* \"#utility.yul\":5739:5743   */\n      dup2\n        /* \"#utility.yul\":5735:5755   */\n      sub\n        /* \"#utility.yul\":5731:5732   */\n      0x00\n        /* \"#utility.yul\":5720:5729   */\n      dup4\n        /* \"#utility.yul\":5716:5733   */\n      add\n        /* \"#utility.yul\":5709:5756   */\n      mstore\n        /* \"#utility.yul\":5773:5904   */\n      tag_117\n        /* \"#utility.yul\":5899:5903   */\n      dup2\n        /* \"#utility.yul\":5773:5904   */\n      tag_61\n      jump\t// in\n    tag_117:\n        /* \"#utility.yul\":5765:5904   */\n      swap1\n      pop\n        /* \"#utility.yul\":5492:5911   */\n      swap2\n      swap1\n      pop\n      jump\t// out\n        /* \"#utility.yul\":5917:6097   */\n    tag_62:\n        /* \"#utility.yul\":5965:6042   */\n      0x4e487b7100000000000000000000000000000000000000000000000000000000\n        /* \"#utility.yul\":5962:5963   */\n      0x00\n        /* \"#utility.yul\":5955:6043   */\n      mstore\n        /* \"#utility.yul\":6062:6066   */\n      0x11\n        /* \"#utility.yul\":6059:6060   */\n      0x04\n        /* \"#utility.yul\":6052:6067   */\n      mstore\n        /* \"#utility.yul\":6086:6090   */\n      0x24\n        /* \"#utility.yul\":6083:6084   */\n      0x00\n        /* \"#utility.yul\":6076:6091   */\n      revert\n        /* \"#utility.yul\":6103:6297   */\n    tag_33:\n        /* \"#utility.yul\":6143:6147   */\n      0x00\n        /* \"#utility.yul\":6163:6183   */\n      tag_120\n        /* \"#utility.yul\":6181:6182   */\n      dup3\n        /* \"#utility.yul\":6163:6183   */\n      tag_51\n      jump\t// in\n    tag_120:\n        /* \"#utility.yul\":6158:6183   */\n      swap2\n      pop\n        /* \"#utility.yul\":6197:6217   */\n      tag_121\n        /* \"#utility.yul\":6215:6216   */\n      dup4\n        /* \"#utility.yul\":6197:6217   */\n      tag_51\n      jump\t// in\n    tag_121:\n        /* \"#utility.yul\":6192:6217   */\n      swap3\n      pop\n        /* \"#utility.yul\":6241:6242   */\n      dup3\n        /* \"#utility.yul\":6238:6239   */\n      dup3\n        /* \"#utility.yul\":6234:6243   */\n      sub\n        /* \"#utility.yul\":6226:6243   */\n      swap1\n      pop\n        /* \"#utility.yul\":6265:6266   */\n      dup2\n        /* \"#utility.yul\":6259:6263   */\n      dup2\n        /* \"#utility.yul\":6256:6267   */\n      gt\n        /* \"#utility.yul\":6253:6290   */\n      iszero\n      tag_122\n      jumpi\n        /* \"#utility.yul\":6270:6288   */\n      tag_123\n      tag_62\n      jump\t// in\n    tag_123:\n        /* \"#utility.yul\":6253:6290   */\n    tag_122:\n        /* \"#utility.yul\":6103:6297   */\n      swap3\n      swap2\n      pop\n      pop\n      jump\t// out\n        /* \"#utility.yul\":6303:6494   */\n    tag_35:\n        /* \"#utility.yul\":6343:6346   */\n      0x00\n        /* \"#utility.yul\":6362:6382   */\n      tag_125\n        /* \"#utility.yul\":6380:6381   */\n      dup3\n        /* \"#utility.yul\":6362:6382   */\n      tag_51\n      jump\t// in\n    tag_125:\n        /* \"#utility.yul\":6357:6382   */\n      swap2\n      pop\n        /* \"#utility.yul\":6396:6416   */\n      tag_126\n        /* \"#utility.yul\":6414:6415   */\n      dup4\n        /* \"#utility.yul\":6396:6416   */\n      tag_51\n      jump\t// in\n    tag_126:\n        /* \"#utility.yul\":6391:6416   */\n      swap3\n      pop\n        /* \"#utility.yul\":6439:6440   */\n      dup3\n        /* \"#utility.yul\":6436:6437   */\n      dup3\n        /* \"#utility.yul\":6432:6441   */\n      add\n        /* \"#utility.yul\":6425:6441   */\n      swap1\n      pop\n        /* \"#utility.yul\":6460:6463   */\n      dup1\n        /* \"#utility.yul\":6457:6458   */\n      dup3\n        /* \"#utility.yul\":6454:6464   */\n      gt\n        /* \"#utility.yul\":6451:6487   */\n      iszero\n      tag_127\n      jumpi\n        /* \"#utility.yul\":6467:6485   */\n      tag_128\n      tag_62\n      jump\t// in\n    tag_128:\n        /* \"#utility.yul\":6451:6487   */\n    tag_127:\n        /* \"#utility.yul\":6303:6494   */\n      swap3\n      swap2\n      pop\n      pop\n      jump\t// out\n        /* \"#utility.yul\":6500:6680   */\n    tag_39:\n        /* \"#utility.yul\":6548:6625   */\n      0x4e487b7100000000000000000000000000000000000000000000000000000000\n        /* \"#utility.yul\":6545:6546   */\n      0x00\n        /* \"#utility.yul\":6538:6626   */\n      mstore\n        /* \"#utility.yul\":6645:6649   */\n      0x01\n        /* \"#utility.yul\":6642:6643   */\n      0x04\n        /* \"#utility.yul\":6635:6650   */\n      mstore\n        /* \"#utility.yul\":6669:6673   */\n      0x24\n        /* \"#utility.yul\":6666:6667   */\n      0x00\n        /* \"#utility.yul\":6659:6674   */\n      revert\n        /* \"#utility.yul\":6686:6804   */\n    tag_63:\n        /* \"#utility.yul\":6773:6797   */\n      tag_131\n        /* \"#utility.yul\":6791:6796   */\n      dup2\n        /* \"#utility.yul\":6773:6797   */\n      tag_48\n      jump\t// in\n    tag_131:\n        /* \"#utility.yul\":6768:6771   */\n      dup3\n        /* \"#utility.yul\":6761:6798   */\n      mstore\n        /* \"#utility.yul\":6686:6804   */\n      pop\n      pop\n      jump\t// out\n        /* \"#utility.yul\":6810:7142   */\n    tag_43:\n        /* \"#utility.yul\":6931:6935   */\n      0x00\n        /* \"#utility.yul\":6969:6971   */\n      0x40\n        /* \"#utility.yul\":6958:6967   */\n      dup3\n        /* \"#utility.yul\":6954:6972   */\n      add\n        /* \"#utility.yul\":6946:6972   */\n      swap1\n      pop\n        /* \"#utility.yul\":6982:7053   */\n      tag_133\n        /* \"#utility.yul\":7050:7051   */\n      0x00\n        /* \"#utility.yul\":7039:7048   */\n      dup4\n        /* \"#utility.yul\":7035:7052   */\n      add\n        /* \"#utility.yul\":7026:7032   */\n      dup6\n        /* \"#utility.yul\":6982:7053   */\n      tag_54\n      jump\t// in\n    tag_133:\n        /* \"#utility.yul\":7063:7135   */\n      tag_134\n        /* \"#utility.yul\":7131:7133   */\n      0x20\n        /* \"#utility.yul\":7120:7129   */\n      dup4\n        /* \"#utility.yul\":7116:7134   */\n      add\n        /* \"#utility.yul\":7107:7113   */\n      dup5\n        /* \"#utility.yul\":7063:7135   */\n      tag_63\n      jump\t// in\n    tag_134:\n        /* \"#utility.yul\":6810:7142   */\n      swap4\n      swap3\n      pop\n      pop\n      pop\n      jump\t// out\n\n    auxdata: 0xa2646970667358221220a1f806e72968a0867658d7e827bf21cde10df5c2f3bf406bc9b29b524d1482be64736f6c634300081a0033\n}\n",
				"bytecode": {
					"linkReferences": {},
					"object": "6080604052348015600e575f80fd5b503360015f6101000a81548173ffffffffffffffffffffffffffffffffffffffff021916908373ffffffffffffffffffffffffffffffffffffffff16021790555061086c8061005c5f395ff3fe608060405234801561000f575f80fd5b506004361061003f575f3560e01c8063a9059cbb14610043578063d91921ed1461005f578063e3d670d71461008f575b5f80fd5b61005d600480360381019061005891906104f0565b6100bf565b005b6100796004803603810190610074919061052e565b61037b565b6040516100869190610568565b60405180910390f35b6100a960048036038101906100a49190610581565b61044b565b6040516100b69190610568565b60405180910390f35b3373ffffffffffffffffffffffffffffffffffffffff1660015f9054906101000a900473ffffffffffffffffffffffffffffffffffffffff1673ffffffffffffffffffffffffffffffffffffffff161461014e576040517f08c379a000000000000000000000000000000000000000000000000000000000815260040161014590610606565b60405180910390fd5b805f803373ffffffffffffffffffffffffffffffffffffffff1673ffffffffffffffffffffffffffffffffffffffff1681526020019081526020015f205410156101cd576040517f08c379a00000000000000000000000000000000000000000000000000000000081526004016101c490610694565b60405180910390fd5b8173ffffffffffffffffffffffffffffffffffffffff163373ffffffffffffffffffffffffffffffffffffffff160361023b576040517f08c379a000000000000000000000000000000000000000000000000000000000815260040161023290610722565b60405180910390fd5b5f805f3373ffffffffffffffffffffffffffffffffffffffff1673ffffffffffffffffffffffffffffffffffffffff1681526020019081526020015f20549050815f803373ffffffffffffffffffffffffffffffffffffffff1673ffffffffffffffffffffffffffffffffffffffff1681526020019081526020015f205f8282546102c6919061076d565b92505081905550815f808573ffffffffffffffffffffffffffffffffffffffff1673ffffffffffffffffffffffffffffffffffffffff1681526020019081526020015f205f82825461031891906107a0565b92505081905550818161032b919061076d565b5f803373ffffffffffffffffffffffffffffffffffffffff1673ffffffffffffffffffffffffffffffffffffffff1681526020019081526020015f205414610376576103756107d3565b5b505050565b5f815f803373ffffffffffffffffffffffffffffffffffffffff1673ffffffffffffffffffffffffffffffffffffffff1681526020019081526020015f205f8282546103c791906107a0565b925050819055507fdb42e689d0c993b1eaac62924e67d96c365c40778a39beaaaf6865b061a93f3282336040516103ff92919061080f565b60405180910390a15f803373ffffffffffffffffffffffffffffffffffffffff1673ffffffffffffffffffffffffffffffffffffffff1681526020019081526020015f20549050919050565b5f602052805f5260405f205f915090505481565b5f80fd5b5f73ffffffffffffffffffffffffffffffffffffffff82169050919050565b5f61048c82610463565b9050919050565b61049c81610482565b81146104a6575f80fd5b50565b5f813590506104b781610493565b92915050565b5f819050919050565b6104cf816104bd565b81146104d9575f80fd5b50565b5f813590506104ea816104c6565b92915050565b5f80604083850312156105065761050561045f565b5b5f610513858286016104a9565b9250506020610524858286016104dc565b9150509250929050565b5f602082840312156105435761054261045f565b5b5f610550848285016104dc565b91505092915050565b610562816104bd565b82525050565b5f60208201905061057b5f830184610559565b92915050565b5f602082840312156105965761059561045f565b5b5f6105a3848285016104a9565b91505092915050565b5f82825260208201905092915050565b7f596f7220617265206e6f7420746865206f776e657200000000000000000000005f82015250565b5f6105f06015836105ac565b91506105fb826105bc565b602082019050919050565b5f6020820190508181035f83015261061d816105e4565b9050919050565b7f2121212121212121212121214e6f7420656e6f7567682042616c616e636521215f8201527f2121212121212100000000000000000000000000000000000000000000000000602082015250565b5f61067e6027836105ac565b915061068982610624565b604082019050919050565b5f6020820190508181035f8301526106ab81610672565b9050919050565b7f596f7520617265207573696e672073616d6520616464726573732e204368616e5f8201527f67652073656e64657220616464726573732e0000000000000000000000000000602082015250565b5f61070c6032836105ac565b9150610717826106b2565b604082019050919050565b5f6020820190508181035f83015261073981610700565b9050919050565b7f4e487b71000000000000000000000000000000000000000000000000000000005f52601160045260245ffd5b5f610777826104bd565b9150610782836104bd565b925082820390508181111561079a57610799610740565b5b92915050565b5f6107aa826104bd565b91506107b5836104bd565b92508282019050808211156107cd576107cc610740565b5b92915050565b7f4e487b71000000000000000000000000000000000000000000000000000000005f52600160045260245ffd5b61080981610482565b82525050565b5f6040820190506108225f830185610559565b61082f6020830184610800565b939250505056fea2646970667358221220a1f806e72968a0867658d7e827bf21cde10df5c2f3bf406bc9b29b524d1482be64736f6c634300081a0033",
					"opcodes": "PUSH1 0x80 PUSH1 0x40 MSTORE CALLVALUE DUP1 ISZERO PUSH1 0xE JUMPI PUSH0 DUP1 REVERT JUMPDEST POP CALLER PUSH1 0x1 PUSH0 PUSH2 0x100 EXP DUP2 SLOAD DUP2 PUSH20 0xFFFFFFFFFFFFFFFFFFFFFFFFFFFFFFFFFFFFFFFF MUL NOT AND SWAP1 DUP4 PUSH20 0xFFFFFFFFFFFFFFFFFFFFFFFFFFFFFFFFFFFFFFFF AND MUL OR SWAP1 SSTORE POP PUSH2 0x86C DUP1 PUSH2 0x5C PUSH0 CODECOPY PUSH0 RETURN INVALID PUSH1 0x80 PUSH1 0x40 MSTORE CALLVALUE DUP1 ISZERO PUSH2 0xF JUMPI PUSH0 DUP1 REVERT JUMPDEST POP PUSH1 0x4 CALLDATASIZE LT PUSH2 0x3F JUMPI PUSH0 CALLDATALOAD PUSH1 0xE0 SHR DUP1 PUSH4 0xA9059CBB EQ PUSH2 0x43 JUMPI DUP1 PUSH4 0xD91921ED EQ PUSH2 0x5F JUMPI DUP1 PUSH4 0xE3D670D7 EQ PUSH2 0x8F JUMPI JUMPDEST PUSH0 DUP1 REVERT JUMPDEST PUSH2 0x5D PUSH1 0x4 DUP1 CALLDATASIZE SUB DUP2 ADD SWAP1 PUSH2 0x58 SWAP2 SWAP1 PUSH2 0x4F0 JUMP JUMPDEST PUSH2 0xBF JUMP JUMPDEST STOP JUMPDEST PUSH2 0x79 PUSH1 0x4 DUP1 CALLDATASIZE SUB DUP2 ADD SWAP1 PUSH2 0x74 SWAP2 SWAP1 PUSH2 0x52E JUMP JUMPDEST PUSH2 0x37B JUMP JUMPDEST PUSH1 0x40 MLOAD PUSH2 0x86 SWAP2 SWAP1 PUSH2 0x568 JUMP JUMPDEST PUSH1 0x40 MLOAD DUP1 SWAP2 SUB SWAP1 RETURN JUMPDEST PUSH2 0xA9 PUSH1 0x4 DUP1 CALLDATASIZE SUB DUP2 ADD SWAP1 PUSH2 0xA4 SWAP2 SWAP1 PUSH2 0x581 JUMP JUMPDEST PUSH2 0x44B JUMP JUMPDEST PUSH1 0x40 MLOAD PUSH2 0xB6 SWAP2 SWAP1 PUSH2 0x568 JUMP JUMPDEST PUSH1 0x40 MLOAD DUP1 SWAP2 SUB SWAP1 RETURN JUMPDEST CALLER PUSH20 0xFFFFFFFFFFFFFFFFFFFFFFFFFFFFFFFFFFFFFFFF AND PUSH1 0x1 PUSH0 SWAP1 SLOAD SWAP1 PUSH2 0x100 EXP SWAP1 DIV PUSH20 0xFFFFFFFFFFFFFFFFFFFFFFFFFFFFFFFFFFFFFFFF AND PUSH20 0xFFFFFFFFFFFFFFFFFFFFFFFFFFFFFFFFFFFFFFFF AND EQ PUSH2 0x14E JUMPI PUSH1 0x40 MLOAD PUSH32 0x8C379A000000000000000000000000000000000000000000000000000000000 DUP2 MSTORE PUSH1 0x4 ADD PUSH2 0x145 SWAP1 PUSH2 0x606 JUMP JUMPDEST PUSH1 0x40 MLOAD DUP1 SWAP2 SUB SWAP1 REVERT JUMPDEST DUP1 PUSH0 DUP1 CALLER PUSH20 0xFFFFFFFFFFFFFFFFFFFFFFFFFFFFFFFFFFFFFFFF AND PUSH20 0xFFFFFFFFFFFFFFFFFFFFFFFFFFFFFFFFFFFFFFFF AND DUP2 MSTORE PUSH1 0x20 ADD SWAP1 DUP2 MSTORE PUSH1 0x20 ADD PUSH0 KECCAK256 SLOAD LT ISZERO PUSH2 0x1CD JUMPI PUSH1 0x40 MLOAD PUSH32 0x8C379A000000000000000000000000000000000000000000000000000000000 DUP2 MSTORE PUSH1 0x4 ADD PUSH2 0x1C4 SWAP1 PUSH2 0x694 JUMP JUMPDEST PUSH1 0x40 MLOAD DUP1 SWAP2 SUB SWAP1 REVERT JUMPDEST DUP2 PUSH20 0xFFFFFFFFFFFFFFFFFFFFFFFFFFFFFFFFFFFFFFFF AND CALLER PUSH20 0xFFFFFFFFFFFFFFFFFFFFFFFFFFFFFFFFFFFFFFFF AND SUB PUSH2 0x23B JUMPI PUSH1 0x40 MLOAD PUSH32 0x8C379A000000000000000000000000000000000000000000000000000000000 DUP2 MSTORE PUSH1 0x4 ADD PUSH2 0x232 SWAP1 PUSH2 0x722 JUMP JUMPDEST PUSH1 0x40 MLOAD DUP1 SWAP2 SUB SWAP1 REVERT JUMPDEST PUSH0 DUP1 PUSH0 CALLER PUSH20 0xFFFFFFFFFFFFFFFFFFFFFFFFFFFFFFFFFFFFFFFF AND PUSH20 0xFFFFFFFFFFFFFFFFFFFFFFFFFFFFFFFFFFFFFFFF AND DUP2 MSTORE PUSH1 0x20 ADD SWAP1 DUP2 MSTORE PUSH1 0x20 ADD PUSH0 KECCAK256 SLOAD SWAP1 POP DUP2 PUSH0 DUP1 CALLER PUSH20 0xFFFFFFFFFFFFFFFFFFFFFFFFFFFFFFFFFFFFFFFF AND PUSH20 0xFFFFFFFFFFFFFFFFFFFFFFFFFFFFFFFFFFFFFFFF AND DUP2 MSTORE PUSH1 0x20 ADD SWAP1 DUP2 MSTORE PUSH1 0x20 ADD PUSH0 KECCAK256 PUSH0 DUP3 DUP3 SLOAD PUSH2 0x2C6 SWAP2 SWAP1 PUSH2 0x76D JUMP JUMPDEST SWAP3 POP POP DUP2 SWAP1 SSTORE POP DUP2 PUSH0 DUP1 DUP6 PUSH20 0xFFFFFFFFFFFFFFFFFFFFFFFFFFFFFFFFFFFFFFFF AND PUSH20 0xFFFFFFFFFFFFFFFFFFFFFFFFFFFFFFFFFFFFFFFF AND DUP2 MSTORE PUSH1 0x20 ADD SWAP1 DUP2 MSTORE PUSH1 0x20 ADD PUSH0 KECCAK256 PUSH0 DUP3 DUP3 SLOAD PUSH2 0x318 SWAP2 SWAP1 PUSH2 0x7A0 JUMP JUMPDEST SWAP3 POP POP DUP2 SWAP1 SSTORE POP DUP2 DUP2 PUSH2 0x32B SWAP2 SWAP1 PUSH2 0x76D JUMP JUMPDEST PUSH0 DUP1 CALLER PUSH20 0xFFFFFFFFFFFFFFFFFFFFFFFFFFFFFFFFFFFFFFFF AND PUSH20 0xFFFFFFFFFFFFFFFFFFFFFFFFFFFFFFFFFFFFFFFF AND DUP2 MSTORE PUSH1 0x20 ADD SWAP1 DUP2 MSTORE PUSH1 0x20 ADD PUSH0 KECCAK256 SLOAD EQ PUSH2 0x376 JUMPI PUSH2 0x375 PUSH2 0x7D3 JUMP JUMPDEST JUMPDEST POP POP POP JUMP JUMPDEST PUSH0 DUP2 PUSH0 DUP1 CALLER PUSH20 0xFFFFFFFFFFFFFFFFFFFFFFFFFFFFFFFFFFFFFFFF AND PUSH20 0xFFFFFFFFFFFFFFFFFFFFFFFFFFFFFFFFFFFFFFFF AND DUP2 MSTORE PUSH1 0x20 ADD SWAP1 DUP2 MSTORE PUSH1 0x20 ADD PUSH0 KECCAK256 PUSH0 DUP3 DUP3 SLOAD PUSH2 0x3C7 SWAP2 SWAP1 PUSH2 0x7A0 JUMP JUMPDEST SWAP3 POP POP DUP2 SWAP1 SSTORE POP PUSH32 0xDB42E689D0C993B1EAAC62924E67D96C365C40778A39BEAAAF6865B061A93F32 DUP3 CALLER PUSH1 0x40 MLOAD PUSH2 0x3FF SWAP3 SWAP2 SWAP1 PUSH2 0x80F JUMP JUMPDEST PUSH1 0x40 MLOAD DUP1 SWAP2 SUB SWAP1 LOG1 PUSH0 DUP1 CALLER PUSH20 0xFFFFFFFFFFFFFFFFFFFFFFFFFFFFFFFFFFFFFFFF AND PUSH20 0xFFFFFFFFFFFFFFFFFFFFFFFFFFFFFFFFFFFFFFFF AND DUP2 MSTORE PUSH1 0x20 ADD SWAP1 DUP2 MSTORE PUSH1 0x20 ADD PUSH0 KECCAK256 SLOAD SWAP1 POP SWAP2 SWAP1 POP JUMP JUMPDEST PUSH0 PUSH1 0x20 MSTORE DUP1 PUSH0 MSTORE PUSH1 0x40 PUSH0 KECCAK256 PUSH0 SWAP2 POP SWAP1 POP SLOAD DUP2 JUMP JUMPDEST PUSH0 DUP1 REVERT JUMPDEST PUSH0 PUSH20 0xFFFFFFFFFFFFFFFFFFFFFFFFFFFFFFFFFFFFFFFF DUP3 AND SWAP1 POP SWAP2 SWAP1 POP JUMP JUMPDEST PUSH0 PUSH2 0x48C DUP3 PUSH2 0x463 JUMP JUMPDEST SWAP1 POP SWAP2 SWAP1 POP JUMP JUMPDEST PUSH2 0x49C DUP2 PUSH2 0x482 JUMP JUMPDEST DUP2 EQ PUSH2 0x4A6 JUMPI PUSH0 DUP1 REVERT JUMPDEST POP JUMP JUMPDEST PUSH0 DUP2 CALLDATALOAD SWAP1 POP PUSH2 0x4B7 DUP2 PUSH2 0x493 JUMP JUMPDEST SWAP3 SWAP2 POP POP JUMP JUMPDEST PUSH0 DUP2 SWAP1 POP SWAP2 SWAP1 POP JUMP JUMPDEST PUSH2 0x4CF DUP2 PUSH2 0x4BD JUMP JUMPDEST DUP2 EQ PUSH2 0x4D9 JUMPI PUSH0 DUP1 REVERT JUMPDEST POP JUMP JUMPDEST PUSH0 DUP2 CALLDATALOAD SWAP1 POP PUSH2 0x4EA DUP2 PUSH2 0x4C6 JUMP JUMPDEST SWAP3 SWAP2 POP POP JUMP JUMPDEST PUSH0 DUP1 PUSH1 0x40 DUP4 DUP6 SUB SLT ISZERO PUSH2 0x506 JUMPI PUSH2 0x505 PUSH2 0x45F JUMP JUMPDEST JUMPDEST PUSH0 PUSH2 0x513 DUP6 DUP3 DUP7 ADD PUSH2 0x4A9 JUMP JUMPDEST SWAP3 POP POP PUSH1 0x20 PUSH2 0x524 DUP6 DUP3 DUP7 ADD PUSH2 0x4DC JUMP JUMPDEST SWAP2 POP POP SWAP3 POP SWAP3 SWAP1 POP JUMP JUMPDEST PUSH0 PUSH1 0x20 DUP3 DUP5 SUB SLT ISZERO PUSH2 0x543 JUMPI PUSH2 0x542 PUSH2 0x45F JUMP JUMPDEST JUMPDEST PUSH0 PUSH2 0x550 DUP5 DUP3 DUP6 ADD PUSH2 0x4DC JUMP JUMPDEST SWAP2 POP POP SWAP3 SWAP2 POP POP JUMP JUMPDEST PUSH2 0x562 DUP2 PUSH2 0x4BD JUMP JUMPDEST DUP3 MSTORE POP POP JUMP JUMPDEST PUSH0 PUSH1 0x20 DUP3 ADD SWAP1 POP PUSH2 0x57B PUSH0 DUP4 ADD DUP5 PUSH2 0x559 JUMP JUMPDEST SWAP3 SWAP2 POP POP JUMP JUMPDEST PUSH0 PUSH1 0x20 DUP3 DUP5 SUB SLT ISZERO PUSH2 0x596 JUMPI PUSH2 0x595 PUSH2 0x45F JUMP JUMPDEST JUMPDEST PUSH0 PUSH2 0x5A3 DUP5 DUP3 DUP6 ADD PUSH2 0x4A9 JUMP JUMPDEST SWAP2 POP POP SWAP3 SWAP2 POP POP JUMP JUMPDEST PUSH0 DUP3 DUP3 MSTORE PUSH1 0x20 DUP3 ADD SWAP1 POP SWAP3 SWAP2 POP POP JUMP JUMPDEST PUSH32 0x596F7220617265206E6F7420746865206F776E65720000000000000000000000 PUSH0 DUP3 ADD MSTORE POP JUMP JUMPDEST PUSH0 PUSH2 0x5F0 PUSH1 0x15 DUP4 PUSH2 0x5AC JUMP JUMPDEST SWAP2 POP PUSH2 0x5FB DUP3 PUSH2 0x5BC JUMP JUMPDEST PUSH1 0x20 DUP3 ADD SWAP1 POP SWAP2 SWAP1 POP JUMP JUMPDEST PUSH0 PUSH1 0x20 DUP3 ADD SWAP1 POP DUP2 DUP2 SUB PUSH0 DUP4 ADD MSTORE PUSH2 0x61D DUP2 PUSH2 0x5E4 JUMP JUMPDEST SWAP1 POP SWAP2 SWAP1 POP JUMP JUMPDEST PUSH32 0x2121212121212121212121214E6F7420656E6F7567682042616C616E63652121 PUSH0 DUP3 ADD MSTORE PUSH32 0x2121212121212100000000000000000000000000000000000000000000000000 PUSH1 0x20 DUP3 ADD MSTORE POP JUMP JUMPDEST PUSH0 PUSH2 0x67E PUSH1 0x27 DUP4 PUSH2 0x5AC JUMP JUMPDEST SWAP2 POP PUSH2 0x689 DUP3 PUSH2 0x624 JUMP JUMPDEST PUSH1 0x40 DUP3 ADD SWAP1 POP SWAP2 SWAP1 POP JUMP JUMPDEST PUSH0 PUSH1 0x20 DUP3 ADD SWAP1 POP DUP2 DUP2 SUB PUSH0 DUP4 ADD MSTORE PUSH2 0x6AB DUP2 PUSH2 0x672 JUMP JUMPDEST SWAP1 POP SWAP2 SWAP1 POP JUMP JUMPDEST PUSH32 0x596F7520617265207573696E672073616D6520616464726573732E204368616E PUSH0 DUP3 ADD MSTORE PUSH32 0x67652073656E64657220616464726573732E0000000000000000000000000000 PUSH1 0x20 DUP3 ADD MSTORE POP JUMP JUMPDEST PUSH0 PUSH2 0x70C PUSH1 0x32 DUP4 PUSH2 0x5AC JUMP JUMPDEST SWAP2 POP PUSH2 0x717 DUP3 PUSH2 0x6B2 JUMP JUMPDEST PUSH1 0x40 DUP3 ADD SWAP1 POP SWAP2 SWAP1 POP JUMP JUMPDEST PUSH0 PUSH1 0x20 DUP3 ADD SWAP1 POP DUP2 DUP2 SUB PUSH0 DUP4 ADD MSTORE PUSH2 0x739 DUP2 PUSH2 0x700 JUMP JUMPDEST SWAP1 POP SWAP2 SWAP1 POP JUMP JUMPDEST PUSH32 0x4E487B7100000000000000000000000000000000000000000000000000000000 PUSH0 MSTORE PUSH1 0x11 PUSH1 0x4 MSTORE PUSH1 0x24 PUSH0 REVERT JUMPDEST PUSH0 PUSH2 0x777 DUP3 PUSH2 0x4BD JUMP JUMPDEST SWAP2 POP PUSH2 0x782 DUP4 PUSH2 0x4BD JUMP JUMPDEST SWAP3 POP DUP3 DUP3 SUB SWAP1 POP DUP2 DUP2 GT ISZERO PUSH2 0x79A JUMPI PUSH2 0x799 PUSH2 0x740 JUMP JUMPDEST JUMPDEST SWAP3 SWAP2 POP POP JUMP JUMPDEST PUSH0 PUSH2 0x7AA DUP3 PUSH2 0x4BD JUMP JUMPDEST SWAP2 POP PUSH2 0x7B5 DUP4 PUSH2 0x4BD JUMP JUMPDEST SWAP3 POP DUP3 DUP3 ADD SWAP1 POP DUP1 DUP3 GT ISZERO PUSH2 0x7CD JUMPI PUSH2 0x7CC PUSH2 0x740 JUMP JUMPDEST JUMPDEST SWAP3 SWAP2 POP POP JUMP JUMPDEST PUSH32 0x4E487B7100000000000000000000000000000000000000000000000000000000 PUSH0 MSTORE PUSH1 0x1 PUSH1 0x4 MSTORE PUSH1 0x24 PUSH0 REVERT JUMPDEST PUSH2 0x809 DUP2 PUSH2 0x482 JUMP JUMPDEST DUP3 MSTORE POP POP JUMP JUMPDEST PUSH0 PUSH1 0x40 DUP3 ADD SWAP1 POP PUSH2 0x822 PUSH0 DUP4 ADD DUP6 PUSH2 0x559 JUMP JUMPDEST PUSH2 0x82F PUSH1 0x20 DUP4 ADD DUP5 PUSH2 0x800 JUMP JUMPDEST SWAP4 SWAP3 POP POP POP JUMP INVALID LOG2 PUSH5 0x6970667358 0x22 SLT KECCAK256 LOG1 0xF8 MOD 0xE7 0x29 PUSH9 0xA0867658D7E827BF21 0xCD 0xE1 0xD CREATE2 0xC2 RETURN 0xBF BLOCKHASH PUSH12 0xC9B29B524D1482BE64736F6C PUSH4 0x4300081A STOP CALLER "
				},
				"gasEstimates": {
					"creation": {
						"codeDepositCost": "431200",
						"executionCost": "24731",
						"totalCost": "455931"
					},
					"external": {
						"addBalance(uint256)": "infinite",
						"balance(address)": "2823",
						"transfer(address,uint256)": "infinite"
					}
				},
				"methodIdentifiers": {
					"addBalance(uint256)": "d91921ed",
					"balance(address)": "e3d670d7",
					"transfer(address,uint256)": "a9059cbb"
				}
			},
			"storageLayout": {
				"storage": [
					{
						"astId": 5,
						"contract": "contracts/Mini-Bank-Contract.sol:bank",
						"label": "balance",
						"offset": 0,
						"slot": "0",
						"type": "t_mapping(t_address,t_uint256)"
					},
					{
						"astId": 7,
						"contract": "contracts/Mini-Bank-Contract.sol:bank",
						"label": "owner",
						"offset": 0,
						"slot": "1",
						"type": "t_address"
					}
				],
				"types": {
					"t_address": {
						"encoding": "inplace",
						"label": "address",
						"numberOfBytes": "20"
					},
					"t_mapping(t_address,t_uint256)": {
						"encoding": "mapping",
						"key": "t_address",
						"label": "mapping(address => uint256)",
						"numberOfBytes": "32",
						"value": "t_uint256"
					},
					"t_uint256": {
						"encoding": "inplace",
						"label": "uint256",
						"numberOfBytes": "32"
					}
				}
			},
			"userdoc": {
				"kind": "user",
				"methods": {},
				"version": 1
			}
		}
	}
}