{
	"contracts/Mini-Bank-Contract.sol": {
		"bank": {
			"abi": [
				{
					"inputs": [],
					"stateMutability": "nonpayable",
					"type": "constructor"
				},
				{
					"inputs": [
						{
							"internalType": "uint256",
							"name": "_toAdd",
							"type": "uint256"
						}
					],
					"name": "addBalance",
					"outputs": [
						{
							"internalType": "uint256",
							"name": "",
							"type": "uint256"
						}
					],
					"stateMutability": "nonpayable",
					"type": "function"
				},
				{
					"inputs": [],
					"name": "getBalance",
					"outputs": [
						{
							"internalType": "uint256",
							"name": "",
							"type": "uint256"
						}
					],
					"stateMutability": "view",
					"type": "function"
				},
				{
					"inputs": [
						{
							"internalType": "address",
							"name": "reciver",
							"type": "address"
						},
						{
							"internalType": "uint256",
							"name": "amount",
							"type": "uint256"
						}
					],
					"name": "transfer",
					"outputs": [],
					"stateMutability": "nonpayable",
					"type": "function"
				}
			],
			"devdoc": {
				"kind": "dev",
				"methods": {},
				"version": 1
			},
			"evm": {
				"assembly": "    /* \"contracts/Mini-Bank-Contract.sol\":60:1004  contract bank{... */\n  mstore(0x40, 0x80)\n    /* \"contracts/Mini-Bank-Contract.sol\":247:297  constructor(){... */\n  callvalue\n  dup1\n  iszero\n  tag_1\n  jumpi\n  0x00\n  dup1\n  revert\ntag_1:\n  pop\n    /* \"contracts/Mini-Bank-Contract.sol\":279:289  msg.sender */\n  caller\n    /* \"contracts/Mini-Bank-Contract.sol\":271:276  owner */\n  0x01\n  0x00\n    /* \"contracts/Mini-Bank-Contract.sol\":271:289  owner = msg.sender */\n  0x0100\n  exp\n  dup2\n  sload\n  dup2\n  0xffffffffffffffffffffffffffffffffffffffff\n  mul\n  not\n  and\n  swap1\n  dup4\n  0xffffffffffffffffffffffffffffffffffffffff\n  and\n  mul\n  or\n  swap1\n  sstore\n  pop\n    /* \"contracts/Mini-Bank-Contract.sol\":60:1004  contract bank{... */\n  dataSize(sub_0)\n  dup1\n  dataOffset(sub_0)\n  0x00\n  codecopy\n  0x00\n  return\nstop\n\nsub_0: assembly {\n        /* \"contracts/Mini-Bank-Contract.sol\":60:1004  contract bank{... */\n      mstore(0x40, 0x80)\n      callvalue\n      dup1\n      iszero\n      tag_1\n      jumpi\n      0x00\n      dup1\n      revert\n    tag_1:\n      pop\n      jumpi(tag_2, lt(calldatasize, 0x04))\n      shr(0xe0, calldataload(0x00))\n      dup1\n      0x12065fe0\n      eq\n      tag_3\n      jumpi\n      dup1\n      0xa9059cbb\n      eq\n      tag_4\n      jumpi\n      dup1\n      0xd91921ed\n      eq\n      tag_5\n      jumpi\n    tag_2:\n      0x00\n      dup1\n      revert\n        /* \"contracts/Mini-Bank-Contract.sol\":451:544  function getBalance() public view returns (uint){... */\n    tag_3:\n      tag_6\n      tag_7\n      jump\t// in\n    tag_6:\n      mload(0x40)\n      tag_8\n      swap2\n      swap1\n      tag_9\n      jump\t// in\n    tag_8:\n      mload(0x40)\n      dup1\n      swap2\n      sub\n      swap1\n      return\n        /* \"contracts/Mini-Bank-Contract.sol\":552:999  function transfer(address reciver, uint amount) public onlyowner{... */\n    tag_4:\n      tag_10\n      0x04\n      dup1\n      calldatasize\n      sub\n      dup2\n      add\n      swap1\n      tag_11\n      swap2\n      swap1\n      tag_12\n      jump\t// in\n    tag_11:\n      tag_13\n      jump\t// in\n    tag_10:\n      stop\n        /* \"contracts/Mini-Bank-Contract.sol\":303:445  function addBalance(uint _toAdd) public returns (uint) {... */\n    tag_5:\n      tag_14\n      0x04\n      dup1\n      calldatasize\n      sub\n      dup2\n      add\n      swap1\n      tag_15\n      swap2\n      swap1\n      tag_16\n      jump\t// in\n    tag_15:\n      tag_17\n      jump\t// in\n    tag_14:\n      mload(0x40)\n      tag_18\n      swap2\n      swap1\n      tag_9\n      jump\t// in\n    tag_18:\n      mload(0x40)\n      dup1\n      swap2\n      sub\n      swap1\n      return\n        /* \"contracts/Mini-Bank-Contract.sol\":451:544  function getBalance() public view returns (uint){... */\n    tag_7:\n        /* \"contracts/Mini-Bank-Contract.sol\":494:498  uint */\n      0x00\n        /* \"contracts/Mini-Bank-Contract.sol\":517:524  balance */\n      dup1\n        /* \"contracts/Mini-Bank-Contract.sol\":517:536  balance[msg.sender] */\n      0x00\n        /* \"contracts/Mini-Bank-Contract.sol\":525:535  msg.sender */\n      caller\n        /* \"contracts/Mini-Bank-Contract.sol\":517:536  balance[msg.sender] */\n      0xffffffffffffffffffffffffffffffffffffffff\n      and\n      0xffffffffffffffffffffffffffffffffffffffff\n      and\n      dup2\n      mstore\n      0x20\n      add\n      swap1\n      dup2\n      mstore\n      0x20\n      add\n      0x00\n      keccak256\n      sload\n        /* \"contracts/Mini-Bank-Contract.sol\":510:536  return balance[msg.sender] */\n      swap1\n      pop\n        /* \"contracts/Mini-Bank-Contract.sol\":451:544  function getBalance() public view returns (uint){... */\n      swap1\n      jump\t// out\n        /* \"contracts/Mini-Bank-Contract.sol\":552:999  function transfer(address reciver, uint amount) public onlyowner{... */\n    tag_13:\n        /* \"contracts/Mini-Bank-Contract.sol\":185:195  msg.sender */\n      caller\n        /* \"contracts/Mini-Bank-Contract.sol\":176:195  owner == msg.sender */\n      0xffffffffffffffffffffffffffffffffffffffff\n      and\n        /* \"contracts/Mini-Bank-Contract.sol\":176:181  owner */\n      0x01\n      0x00\n      swap1\n      sload\n      swap1\n      0x0100\n      exp\n      swap1\n      div\n      0xffffffffffffffffffffffffffffffffffffffff\n      and\n        /* \"contracts/Mini-Bank-Contract.sol\":176:195  owner == msg.sender */\n      0xffffffffffffffffffffffffffffffffffffffff\n      and\n      eq\n        /* \"contracts/Mini-Bank-Contract.sol\":168:221  require(owner == msg.sender, \"Yor are not the owner\") */\n      tag_21\n      jumpi\n      mload(0x40)\n      0x08c379a000000000000000000000000000000000000000000000000000000000\n      dup2\n      mstore\n      0x04\n      add\n      tag_22\n      swap1\n      tag_23\n      jump\t// in\n    tag_22:\n      mload(0x40)\n      dup1\n      swap2\n      sub\n      swap1\n      revert\n    tag_21:\n        /* \"contracts/Mini-Bank-Contract.sol\":658:664  amount */\n      dup1\n        /* \"contracts/Mini-Bank-Contract.sol\":635:642  balance */\n      0x00\n        /* \"contracts/Mini-Bank-Contract.sol\":635:654  balance[msg.sender] */\n      dup1\n        /* \"contracts/Mini-Bank-Contract.sol\":643:653  msg.sender */\n      caller\n        /* \"contracts/Mini-Bank-Contract.sol\":635:654  balance[msg.sender] */\n      0xffffffffffffffffffffffffffffffffffffffff\n      and\n      0xffffffffffffffffffffffffffffffffffffffff\n      and\n      dup2\n      mstore\n      0x20\n      add\n      swap1\n      dup2\n      mstore\n      0x20\n      add\n      0x00\n      keccak256\n      sload\n        /* \"contracts/Mini-Bank-Contract.sol\":635:664  balance[msg.sender] >= amount */\n      lt\n      iszero\n        /* \"contracts/Mini-Bank-Contract.sol\":627:708  require(balance[msg.sender] >= amount, \"!!!!!!!!!!!!Not enough Balance!!!!!!!!!\") */\n      tag_25\n      jumpi\n      mload(0x40)\n      0x08c379a000000000000000000000000000000000000000000000000000000000\n      dup2\n      mstore\n      0x04\n      add\n      tag_26\n      swap1\n      tag_27\n      jump\t// in\n    tag_26:\n      mload(0x40)\n      dup1\n      swap2\n      sub\n      swap1\n      revert\n    tag_25:\n        /* \"contracts/Mini-Bank-Contract.sol\":741:748  reciver */\n      dup2\n        /* \"contracts/Mini-Bank-Contract.sol\":727:748  msg.sender != reciver */\n      0xffffffffffffffffffffffffffffffffffffffff\n      and\n        /* \"contracts/Mini-Bank-Contract.sol\":727:737  msg.sender */\n      caller\n        /* \"contracts/Mini-Bank-Contract.sol\":727:748  msg.sender != reciver */\n      0xffffffffffffffffffffffffffffffffffffffff\n      and\n      sub\n        /* \"contracts/Mini-Bank-Contract.sol\":719:803  require(msg.sender != reciver, \"You are using same address. Change sender address.\") */\n      tag_28\n      jumpi\n      mload(0x40)\n      0x08c379a000000000000000000000000000000000000000000000000000000000\n      dup2\n      mstore\n      0x04\n      add\n      tag_29\n      swap1\n      tag_30\n      jump\t// in\n    tag_29:\n      mload(0x40)\n      dup1\n      swap2\n      sub\n      swap1\n      revert\n    tag_28:\n        /* \"contracts/Mini-Bank-Contract.sol\":816:831  uint preBalance */\n      0x00\n        /* \"contracts/Mini-Bank-Contract.sol\":834:841  balance */\n      dup1\n        /* \"contracts/Mini-Bank-Contract.sol\":834:853  balance[msg.sender] */\n      0x00\n        /* \"contracts/Mini-Bank-Contract.sol\":842:852  msg.sender */\n      caller\n        /* \"contracts/Mini-Bank-Contract.sol\":834:853  balance[msg.sender] */\n      0xffffffffffffffffffffffffffffffffffffffff\n      and\n      0xffffffffffffffffffffffffffffffffffffffff\n      and\n      dup2\n      mstore\n      0x20\n      add\n      swap1\n      dup2\n      mstore\n      0x20\n      add\n      0x00\n      keccak256\n      sload\n        /* \"contracts/Mini-Bank-Contract.sol\":816:853  uint preBalance = balance[msg.sender] */\n      swap1\n      pop\n        /* \"contracts/Mini-Bank-Contract.sol\":887:893  amount */\n      dup2\n        /* \"contracts/Mini-Bank-Contract.sol\":864:871  balance */\n      0x00\n        /* \"contracts/Mini-Bank-Contract.sol\":864:883  balance[msg.sender] */\n      dup1\n        /* \"contracts/Mini-Bank-Contract.sol\":872:882  msg.sender */\n      caller\n        /* \"contracts/Mini-Bank-Contract.sol\":864:883  balance[msg.sender] */\n      0xffffffffffffffffffffffffffffffffffffffff\n      and\n      0xffffffffffffffffffffffffffffffffffffffff\n      and\n      dup2\n      mstore\n      0x20\n      add\n      swap1\n      dup2\n      mstore\n      0x20\n      add\n      0x00\n      keccak256\n      0x00\n        /* \"contracts/Mini-Bank-Contract.sol\":864:893  balance[msg.sender] -= amount */\n      dup3\n      dup3\n      sload\n      tag_31\n      swap2\n      swap1\n      tag_32\n      jump\t// in\n    tag_31:\n      swap3\n      pop\n      pop\n      dup2\n      swap1\n      sstore\n      pop\n        /* \"contracts/Mini-Bank-Contract.sol\":924:930  amount */\n      dup2\n        /* \"contracts/Mini-Bank-Contract.sol\":904:911  balance */\n      0x00\n        /* \"contracts/Mini-Bank-Contract.sol\":904:920  balance[reciver] */\n      dup1\n        /* \"contracts/Mini-Bank-Contract.sol\":912:919  reciver */\n      dup6\n        /* \"contracts/Mini-Bank-Contract.sol\":904:920  balance[reciver] */\n      0xffffffffffffffffffffffffffffffffffffffff\n      and\n      0xffffffffffffffffffffffffffffffffffffffff\n      and\n      dup2\n      mstore\n      0x20\n      add\n      swap1\n      dup2\n      mstore\n      0x20\n      add\n      0x00\n      keccak256\n      0x00\n        /* \"contracts/Mini-Bank-Contract.sol\":904:930  balance[reciver] += amount */\n      dup3\n      dup3\n      sload\n      tag_33\n      swap2\n      swap1\n      tag_34\n      jump\t// in\n    tag_33:\n      swap3\n      pop\n      pop\n      dup2\n      swap1\n      sstore\n      pop\n        /* \"contracts/Mini-Bank-Contract.sol\":984:990  amount */\n      dup2\n        /* \"contracts/Mini-Bank-Contract.sol\":971:981  preBalance */\n      dup2\n        /* \"contracts/Mini-Bank-Contract.sol\":971:990  preBalance - amount */\n      tag_35\n      swap2\n      swap1\n      tag_32\n      jump\t// in\n    tag_35:\n        /* \"contracts/Mini-Bank-Contract.sol\":948:955  balance */\n      0x00\n        /* \"contracts/Mini-Bank-Contract.sol\":948:967  balance[msg.sender] */\n      dup1\n        /* \"contracts/Mini-Bank-Contract.sol\":956:966  msg.sender */\n      caller\n        /* \"contracts/Mini-Bank-Contract.sol\":948:967  balance[msg.sender] */\n      0xffffffffffffffffffffffffffffffffffffffff\n      and\n      0xffffffffffffffffffffffffffffffffffffffff\n      and\n      dup2\n      mstore\n      0x20\n      add\n      swap1\n      dup2\n      mstore\n      0x20\n      add\n      0x00\n      keccak256\n      sload\n        /* \"contracts/Mini-Bank-Contract.sol\":948:990  balance[msg.sender] == preBalance - amount */\n      eq\n        /* \"contracts/Mini-Bank-Contract.sol\":941:991  assert(balance[msg.sender] == preBalance - amount) */\n      tag_36\n      jumpi\n      tag_37\n      tag_38\n      jump\t// in\n    tag_37:\n    tag_36:\n        /* \"contracts/Mini-Bank-Contract.sol\":616:999  {... */\n      pop\n        /* \"contracts/Mini-Bank-Contract.sol\":552:999  function transfer(address reciver, uint amount) public onlyowner{... */\n      pop\n      pop\n      jump\t// out\n        /* \"contracts/Mini-Bank-Contract.sol\":303:445  function addBalance(uint _toAdd) public returns (uint) {... */\n    tag_17:\n        /* \"contracts/Mini-Bank-Contract.sol\":352:356  uint */\n      0x00\n        /* \"contracts/Mini-Bank-Contract.sol\":392:398  _toAdd */\n      dup2\n        /* \"contracts/Mini-Bank-Contract.sol\":369:376  balance */\n      0x00\n        /* \"contracts/Mini-Bank-Contract.sol\":369:388  balance[msg.sender] */\n      dup1\n        /* \"contracts/Mini-Bank-Contract.sol\":377:387  msg.sender */\n      caller\n        /* \"contracts/Mini-Bank-Contract.sol\":369:388  balance[msg.sender] */\n      0xffffffffffffffffffffffffffffffffffffffff\n      and\n      0xffffffffffffffffffffffffffffffffffffffff\n      and\n      dup2\n      mstore\n      0x20\n      add\n      swap1\n      dup2\n      mstore\n      0x20\n      add\n      0x00\n      keccak256\n      0x00\n        /* \"contracts/Mini-Bank-Contract.sol\":369:398  balance[msg.sender] += _toAdd */\n      dup3\n      dup3\n      sload\n      tag_40\n      swap2\n      swap1\n      tag_34\n      jump\t// in\n    tag_40:\n      swap3\n      pop\n      pop\n      dup2\n      swap1\n      sstore\n      pop\n        /* \"contracts/Mini-Bank-Contract.sol\":416:423  balance */\n      0x00\n        /* \"contracts/Mini-Bank-Contract.sol\":416:435  balance[msg.sender] */\n      dup1\n        /* \"contracts/Mini-Bank-Contract.sol\":424:434  msg.sender */\n      caller\n        /* \"contracts/Mini-Bank-Contract.sol\":416:435  balance[msg.sender] */\n      0xffffffffffffffffffffffffffffffffffffffff\n      and\n      0xffffffffffffffffffffffffffffffffffffffff\n      and\n      dup2\n      mstore\n      0x20\n      add\n      swap1\n      dup2\n      mstore\n      0x20\n      add\n      0x00\n      keccak256\n      sload\n        /* \"contracts/Mini-Bank-Contract.sol\":409:435  return balance[msg.sender] */\n      swap1\n      pop\n        /* \"contracts/Mini-Bank-Contract.sol\":303:445  function addBalance(uint _toAdd) public returns (uint) {... */\n      swap2\n      swap1\n      pop\n      jump\t// out\n        /* \"#utility.yul\":7:84   */\n    tag_41:\n        /* \"#utility.yul\":44:51   */\n      0x00\n        /* \"#utility.yul\":73:78   */\n      dup2\n        /* \"#utility.yul\":62:78   */\n      swap1\n      pop\n        /* \"#utility.yul\":7:84   */\n      swap2\n      swap1\n      pop\n      jump\t// out\n        /* \"#utility.yul\":90:208   */\n    tag_42:\n        /* \"#utility.yul\":177:201   */\n      tag_63\n        /* \"#utility.yul\":195:200   */\n      dup2\n        /* \"#utility.yul\":177:201   */\n      tag_41\n      jump\t// in\n    tag_63:\n        /* \"#utility.yul\":172:175   */\n      dup3\n        /* \"#utility.yul\":165:202   */\n      mstore\n        /* \"#utility.yul\":90:208   */\n      pop\n      pop\n      jump\t// out\n        /* \"#utility.yul\":214:436   */\n    tag_9:\n        /* \"#utility.yul\":307:311   */\n      0x00\n        /* \"#utility.yul\":345:347   */\n      0x20\n        /* \"#utility.yul\":334:343   */\n      dup3\n        /* \"#utility.yul\":330:348   */\n      add\n        /* \"#utility.yul\":322:348   */\n      swap1\n      pop\n        /* \"#utility.yul\":358:429   */\n      tag_65\n        /* \"#utility.yul\":426:427   */\n      0x00\n        /* \"#utility.yul\":415:424   */\n      dup4\n        /* \"#utility.yul\":411:428   */\n      add\n        /* \"#utility.yul\":402:408   */\n      dup5\n        /* \"#utility.yul\":358:429   */\n      tag_42\n      jump\t// in\n    tag_65:\n        /* \"#utility.yul\":214:436   */\n      swap3\n      swap2\n      pop\n      pop\n      jump\t// out\n        /* \"#utility.yul\":523:640   */\n    tag_44:\n        /* \"#utility.yul\":632:633   */\n      0x00\n        /* \"#utility.yul\":629:630   */\n      dup1\n        /* \"#utility.yul\":622:634   */\n      revert\n        /* \"#utility.yul\":769:895   */\n    tag_46:\n        /* \"#utility.yul\":806:813   */\n      0x00\n        /* \"#utility.yul\":846:888   */\n      0xffffffffffffffffffffffffffffffffffffffff\n        /* \"#utility.yul\":839:844   */\n      dup3\n        /* \"#utility.yul\":835:889   */\n      and\n        /* \"#utility.yul\":824:889   */\n      swap1\n      pop\n        /* \"#utility.yul\":769:895   */\n      swap2\n      swap1\n      pop\n      jump\t// out\n        /* \"#utility.yul\":901:997   */\n    tag_47:\n        /* \"#utility.yul\":938:945   */\n      0x00\n        /* \"#utility.yul\":967:991   */\n      tag_71\n        /* \"#utility.yul\":985:990   */\n      dup3\n        /* \"#utility.yul\":967:991   */\n      tag_46\n      jump\t// in\n    tag_71:\n        /* \"#utility.yul\":956:991   */\n      swap1\n      pop\n        /* \"#utility.yul\":901:997   */\n      swap2\n      swap1\n      pop\n      jump\t// out\n        /* \"#utility.yul\":1003:1125   */\n    tag_48:\n        /* \"#utility.yul\":1076:1100   */\n      tag_73\n        /* \"#utility.yul\":1094:1099   */\n      dup2\n        /* \"#utility.yul\":1076:1100   */\n      tag_47\n      jump\t// in\n    tag_73:\n        /* \"#utility.yul\":1069:1074   */\n      dup2\n        /* \"#utility.yul\":1066:1101   */\n      eq\n        /* \"#utility.yul\":1056:1119   */\n      tag_74\n      jumpi\n        /* \"#utility.yul\":1115:1116   */\n      0x00\n        /* \"#utility.yul\":1112:1113   */\n      dup1\n        /* \"#utility.yul\":1105:1117   */\n      revert\n        /* \"#utility.yul\":1056:1119   */\n    tag_74:\n        /* \"#utility.yul\":1003:1125   */\n      pop\n      jump\t// out\n        /* \"#utility.yul\":1131:1270   */\n    tag_49:\n        /* \"#utility.yul\":1177:1182   */\n      0x00\n        /* \"#utility.yul\":1215:1221   */\n      dup2\n        /* \"#utility.yul\":1202:1222   */\n      calldataload\n        /* \"#utility.yul\":1193:1222   */\n      swap1\n      pop\n        /* \"#utility.yul\":1231:1264   */\n      tag_76\n        /* \"#utility.yul\":1258:1263   */\n      dup2\n        /* \"#utility.yul\":1231:1264   */\n      tag_48\n      jump\t// in\n    tag_76:\n        /* \"#utility.yul\":1131:1270   */\n      swap3\n      swap2\n      pop\n      pop\n      jump\t// out\n        /* \"#utility.yul\":1276:1398   */\n    tag_50:\n        /* \"#utility.yul\":1349:1373   */\n      tag_78\n        /* \"#utility.yul\":1367:1372   */\n      dup2\n        /* \"#utility.yul\":1349:1373   */\n      tag_41\n      jump\t// in\n    tag_78:\n        /* \"#utility.yul\":1342:1347   */\n      dup2\n        /* \"#utility.yul\":1339:1374   */\n      eq\n        /* \"#utility.yul\":1329:1392   */\n      tag_79\n      jumpi\n        /* \"#utility.yul\":1388:1389   */\n      0x00\n        /* \"#utility.yul\":1385:1386   */\n      dup1\n        /* \"#utility.yul\":1378:1390   */\n      revert\n        /* \"#utility.yul\":1329:1392   */\n    tag_79:\n        /* \"#utility.yul\":1276:1398   */\n      pop\n      jump\t// out\n        /* \"#utility.yul\":1404:1543   */\n    tag_51:\n        /* \"#utility.yul\":1450:1455   */\n      0x00\n        /* \"#utility.yul\":1488:1494   */\n      dup2\n        /* \"#utility.yul\":1475:1495   */\n      calldataload\n        /* \"#utility.yul\":1466:1495   */\n      swap1\n      pop\n        /* \"#utility.yul\":1504:1537   */\n      tag_81\n        /* \"#utility.yul\":1531:1536   */\n      dup2\n        /* \"#utility.yul\":1504:1537   */\n      tag_50\n      jump\t// in\n    tag_81:\n        /* \"#utility.yul\":1404:1543   */\n      swap3\n      swap2\n      pop\n      pop\n      jump\t// out\n        /* \"#utility.yul\":1549:2023   */\n    tag_12:\n        /* \"#utility.yul\":1617:1623   */\n      0x00\n        /* \"#utility.yul\":1625:1631   */\n      dup1\n        /* \"#utility.yul\":1674:1676   */\n      0x40\n        /* \"#utility.yul\":1662:1671   */\n      dup4\n        /* \"#utility.yul\":1653:1660   */\n      dup6\n        /* \"#utility.yul\":1649:1672   */\n      sub\n        /* \"#utility.yul\":1645:1677   */\n      slt\n        /* \"#utility.yul\":1642:1761   */\n      iszero\n      tag_83\n      jumpi\n        /* \"#utility.yul\":1680:1759   */\n      tag_84\n      tag_44\n      jump\t// in\n    tag_84:\n        /* \"#utility.yul\":1642:1761   */\n    tag_83:\n        /* \"#utility.yul\":1800:1801   */\n      0x00\n        /* \"#utility.yul\":1825:1878   */\n      tag_85\n        /* \"#utility.yul\":1870:1877   */\n      dup6\n        /* \"#utility.yul\":1861:1867   */\n      dup3\n        /* \"#utility.yul\":1850:1859   */\n      dup7\n        /* \"#utility.yul\":1846:1868   */\n      add\n        /* \"#utility.yul\":1825:1878   */\n      tag_49\n      jump\t// in\n    tag_85:\n        /* \"#utility.yul\":1815:1878   */\n      swap3\n      pop\n        /* \"#utility.yul\":1771:1888   */\n      pop\n        /* \"#utility.yul\":1927:1929   */\n      0x20\n        /* \"#utility.yul\":1953:2006   */\n      tag_86\n        /* \"#utility.yul\":1998:2005   */\n      dup6\n        /* \"#utility.yul\":1989:1995   */\n      dup3\n        /* \"#utility.yul\":1978:1987   */\n      dup7\n        /* \"#utility.yul\":1974:1996   */\n      add\n        /* \"#utility.yul\":1953:2006   */\n      tag_51\n      jump\t// in\n    tag_86:\n        /* \"#utility.yul\":1943:2006   */\n      swap2\n      pop\n        /* \"#utility.yul\":1898:2016   */\n      pop\n        /* \"#utility.yul\":1549:2023   */\n      swap3\n      pop\n      swap3\n      swap1\n      pop\n      jump\t// out\n        /* \"#utility.yul\":2029:2358   */\n    tag_16:\n        /* \"#utility.yul\":2088:2094   */\n      0x00\n        /* \"#utility.yul\":2137:2139   */\n      0x20\n        /* \"#utility.yul\":2125:2134   */\n      dup3\n        /* \"#utility.yul\":2116:2123   */\n      dup5\n        /* \"#utility.yul\":2112:2135   */\n      sub\n        /* \"#utility.yul\":2108:2140   */\n      slt\n        /* \"#utility.yul\":2105:2224   */\n      iszero\n      tag_88\n      jumpi\n        /* \"#utility.yul\":2143:2222   */\n      tag_89\n      tag_44\n      jump\t// in\n    tag_89:\n        /* \"#utility.yul\":2105:2224   */\n    tag_88:\n        /* \"#utility.yul\":2263:2264   */\n      0x00\n        /* \"#utility.yul\":2288:2341   */\n      tag_90\n        /* \"#utility.yul\":2333:2340   */\n      dup5\n        /* \"#utility.yul\":2324:2330   */\n      dup3\n        /* \"#utility.yul\":2313:2322   */\n      dup6\n        /* \"#utility.yul\":2309:2331   */\n      add\n        /* \"#utility.yul\":2288:2341   */\n      tag_51\n      jump\t// in\n    tag_90:\n        /* \"#utility.yul\":2278:2341   */\n      swap2\n      pop\n        /* \"#utility.yul\":2234:2351   */\n      pop\n        /* \"#utility.yul\":2029:2358   */\n      swap3\n      swap2\n      pop\n      pop\n      jump\t// out\n        /* \"#utility.yul\":2364:2533   */\n    tag_52:\n        /* \"#utility.yul\":2448:2459   */\n      0x00\n        /* \"#utility.yul\":2482:2488   */\n      dup3\n        /* \"#utility.yul\":2477:2480   */\n      dup3\n        /* \"#utility.yul\":2470:2489   */\n      mstore\n        /* \"#utility.yul\":2522:2526   */\n      0x20\n        /* \"#utility.yul\":2517:2520   */\n      dup3\n        /* \"#utility.yul\":2513:2527   */\n      add\n        /* \"#utility.yul\":2498:2527   */\n      swap1\n      pop\n        /* \"#utility.yul\":2364:2533   */\n      swap3\n      swap2\n      pop\n      pop\n      jump\t// out\n        /* \"#utility.yul\":2539:2710   */\n    tag_53:\n        /* \"#utility.yul\":2679:2702   */\n      0x596f7220617265206e6f7420746865206f776e65720000000000000000000000\n        /* \"#utility.yul\":2675:2676   */\n      0x00\n        /* \"#utility.yul\":2667:2673   */\n      dup3\n        /* \"#utility.yul\":2663:2677   */\n      add\n        /* \"#utility.yul\":2656:2703   */\n      mstore\n        /* \"#utility.yul\":2539:2710   */\n      pop\n      jump\t// out\n        /* \"#utility.yul\":2716:3082   */\n    tag_54:\n        /* \"#utility.yul\":2858:2861   */\n      0x00\n        /* \"#utility.yul\":2879:2946   */\n      tag_94\n        /* \"#utility.yul\":2943:2945   */\n      0x15\n        /* \"#utility.yul\":2938:2941   */\n      dup4\n        /* \"#utility.yul\":2879:2946   */\n      tag_52\n      jump\t// in\n    tag_94:\n        /* \"#utility.yul\":2872:2946   */\n      swap2\n      pop\n        /* \"#utility.yul\":2955:3048   */\n      tag_95\n        /* \"#utility.yul\":3044:3047   */\n      dup3\n        /* \"#utility.yul\":2955:3048   */\n      tag_53\n      jump\t// in\n    tag_95:\n        /* \"#utility.yul\":3073:3075   */\n      0x20\n        /* \"#utility.yul\":3068:3071   */\n      dup3\n        /* \"#utility.yul\":3064:3076   */\n      add\n        /* \"#utility.yul\":3057:3076   */\n      swap1\n      pop\n        /* \"#utility.yul\":2716:3082   */\n      swap2\n      swap1\n      pop\n      jump\t// out\n        /* \"#utility.yul\":3088:3507   */\n    tag_23:\n        /* \"#utility.yul\":3254:3258   */\n      0x00\n        /* \"#utility.yul\":3292:3294   */\n      0x20\n        /* \"#utility.yul\":3281:3290   */\n      dup3\n        /* \"#utility.yul\":3277:3295   */\n      add\n        /* \"#utility.yul\":3269:3295   */\n      swap1\n      pop\n        /* \"#utility.yul\":3341:3350   */\n      dup2\n        /* \"#utility.yul\":3335:3339   */\n      dup2\n        /* \"#utility.yul\":3331:3351   */\n      sub\n        /* \"#utility.yul\":3327:3328   */\n      0x00\n        /* \"#utility.yul\":3316:3325   */\n      dup4\n        /* \"#utility.yul\":3312:3329   */\n      add\n        /* \"#utility.yul\":3305:3352   */\n      mstore\n        /* \"#utility.yul\":3369:3500   */\n      tag_97\n        /* \"#utility.yul\":3495:3499   */\n      dup2\n        /* \"#utility.yul\":3369:3500   */\n      tag_54\n      jump\t// in\n    tag_97:\n        /* \"#utility.yul\":3361:3500   */\n      swap1\n      pop\n        /* \"#utility.yul\":3088:3507   */\n      swap2\n      swap1\n      pop\n      jump\t// out\n        /* \"#utility.yul\":3513:3739   */\n    tag_55:\n        /* \"#utility.yul\":3653:3687   */\n      0x2121212121212121212121214e6f7420656e6f7567682042616c616e63652121\n        /* \"#utility.yul\":3649:3650   */\n      0x00\n        /* \"#utility.yul\":3641:3647   */\n      dup3\n        /* \"#utility.yul\":3637:3651   */\n      add\n        /* \"#utility.yul\":3630:3688   */\n      mstore\n        /* \"#utility.yul\":3722:3731   */\n      0x2121212121212100000000000000000000000000000000000000000000000000\n        /* \"#utility.yul\":3717:3719   */\n      0x20\n        /* \"#utility.yul\":3709:3715   */\n      dup3\n        /* \"#utility.yul\":3705:3720   */\n      add\n        /* \"#utility.yul\":3698:3732   */\n      mstore\n        /* \"#utility.yul\":3513:3739   */\n      pop\n      jump\t// out\n        /* \"#utility.yul\":3745:4111   */\n    tag_56:\n        /* \"#utility.yul\":3887:3890   */\n      0x00\n        /* \"#utility.yul\":3908:3975   */\n      tag_100\n        /* \"#utility.yul\":3972:3974   */\n      0x27\n        /* \"#utility.yul\":3967:3970   */\n      dup4\n        /* \"#utility.yul\":3908:3975   */\n      tag_52\n      jump\t// in\n    tag_100:\n        /* \"#utility.yul\":3901:3975   */\n      swap2\n      pop\n        /* \"#utility.yul\":3984:4077   */\n      tag_101\n        /* \"#utility.yul\":4073:4076   */\n      dup3\n        /* \"#utility.yul\":3984:4077   */\n      tag_55\n      jump\t// in\n    tag_101:\n        /* \"#utility.yul\":4102:4104   */\n      0x40\n        /* \"#utility.yul\":4097:4100   */\n      dup3\n        /* \"#utility.yul\":4093:4105   */\n      add\n        /* \"#utility.yul\":4086:4105   */\n      swap1\n      pop\n        /* \"#utility.yul\":3745:4111   */\n      swap2\n      swap1\n      pop\n      jump\t// out\n        /* \"#utility.yul\":4117:4536   */\n    tag_27:\n        /* \"#utility.yul\":4283:4287   */\n      0x00\n        /* \"#utility.yul\":4321:4323   */\n      0x20\n        /* \"#utility.yul\":4310:4319   */\n      dup3\n        /* \"#utility.yul\":4306:4324   */\n      add\n        /* \"#utility.yul\":4298:4324   */\n      swap1\n      pop\n        /* \"#utility.yul\":4370:4379   */\n      dup2\n        /* \"#utility.yul\":4364:4368   */\n      dup2\n        /* \"#utility.yul\":4360:4380   */\n      sub\n        /* \"#utility.yul\":4356:4357   */\n      0x00\n        /* \"#utility.yul\":4345:4354   */\n      dup4\n        /* \"#utility.yul\":4341:4358   */\n      add\n        /* \"#utility.yul\":4334:4381   */\n      mstore\n        /* \"#utility.yul\":4398:4529   */\n      tag_103\n        /* \"#utility.yul\":4524:4528   */\n      dup2\n        /* \"#utility.yul\":4398:4529   */\n      tag_56\n      jump\t// in\n    tag_103:\n        /* \"#utility.yul\":4390:4529   */\n      swap1\n      pop\n        /* \"#utility.yul\":4117:4536   */\n      swap2\n      swap1\n      pop\n      jump\t// out\n        /* \"#utility.yul\":4542:4779   */\n    tag_57:\n        /* \"#utility.yul\":4682:4716   */\n      0x596f7520617265207573696e672073616d6520616464726573732e204368616e\n        /* \"#utility.yul\":4678:4679   */\n      0x00\n        /* \"#utility.yul\":4670:4676   */\n      dup3\n        /* \"#utility.yul\":4666:4680   */\n      add\n        /* \"#utility.yul\":4659:4717   */\n      mstore\n        /* \"#utility.yul\":4751:4771   */\n      0x67652073656e64657220616464726573732e0000000000000000000000000000\n        /* \"#utility.yul\":4746:4748   */\n      0x20\n        /* \"#utility.yul\":4738:4744   */\n      dup3\n        /* \"#utility.yul\":4734:4749   */\n      add\n        /* \"#utility.yul\":4727:4772   */\n      mstore\n        /* \"#utility.yul\":4542:4779   */\n      pop\n      jump\t// out\n        /* \"#utility.yul\":4785:5151   */\n    tag_58:\n        /* \"#utility.yul\":4927:4930   */\n      0x00\n        /* \"#utility.yul\":4948:5015   */\n      tag_106\n        /* \"#utility.yul\":5012:5014   */\n      0x32\n        /* \"#utility.yul\":5007:5010   */\n      dup4\n        /* \"#utility.yul\":4948:5015   */\n      tag_52\n      jump\t// in\n    tag_106:\n        /* \"#utility.yul\":4941:5015   */\n      swap2\n      pop\n        /* \"#utility.yul\":5024:5117   */\n      tag_107\n        /* \"#utility.yul\":5113:5116   */\n      dup3\n        /* \"#utility.yul\":5024:5117   */\n      tag_57\n      jump\t// in\n    tag_107:\n        /* \"#utility.yul\":5142:5144   */\n      0x40\n        /* \"#utility.yul\":5137:5140   */\n      dup3\n        /* \"#utility.yul\":5133:5145   */\n      add\n        /* \"#utility.yul\":5126:5145   */\n      swap1\n      pop\n        /* \"#utility.yul\":4785:5151   */\n      swap2\n      swap1\n      pop\n      jump\t// out\n        /* \"#utility.yul\":5157:5576   */\n    tag_30:\n        /* \"#utility.yul\":5323:5327   */\n      0x00\n        /* \"#utility.yul\":5361:5363   */\n      0x20\n        /* \"#utility.yul\":5350:5359   */\n      dup3\n        /* \"#utility.yul\":5346:5364   */\n      add\n        /* \"#utility.yul\":5338:5364   */\n      swap1\n      pop\n        /* \"#utility.yul\":5410:5419   */\n      dup2\n        /* \"#utility.yul\":5404:5408   */\n      dup2\n        /* \"#utility.yul\":5400:5420   */\n      sub\n        /* \"#utility.yul\":5396:5397   */\n      0x00\n        /* \"#utility.yul\":5385:5394   */\n      dup4\n        /* \"#utility.yul\":5381:5398   */\n      add\n        /* \"#utility.yul\":5374:5421   */\n      mstore\n        /* \"#utility.yul\":5438:5569   */\n      tag_109\n        /* \"#utility.yul\":5564:5568   */\n      dup2\n        /* \"#utility.yul\":5438:5569   */\n      tag_58\n      jump\t// in\n    tag_109:\n        /* \"#utility.yul\":5430:5569   */\n      swap1\n      pop\n        /* \"#utility.yul\":5157:5576   */\n      swap2\n      swap1\n      pop\n      jump\t// out\n        /* \"#utility.yul\":5582:5762   */\n    tag_59:\n        /* \"#utility.yul\":5630:5707   */\n      0x4e487b7100000000000000000000000000000000000000000000000000000000\n        /* \"#utility.yul\":5627:5628   */\n      0x00\n        /* \"#utility.yul\":5620:5708   */\n      mstore\n        /* \"#utility.yul\":5727:5731   */\n      0x11\n        /* \"#utility.yul\":5724:5725   */\n      0x04\n        /* \"#utility.yul\":5717:5732   */\n      mstore\n        /* \"#utility.yul\":5751:5755   */\n      0x24\n        /* \"#utility.yul\":5748:5749   */\n      0x00\n        /* \"#utility.yul\":5741:5756   */\n      revert\n        /* \"#utility.yul\":5768:5962   */\n    tag_32:\n        /* \"#utility.yul\":5808:5812   */\n      0x00\n        /* \"#utility.yul\":5828:5848   */\n      tag_112\n        /* \"#utility.yul\":5846:5847   */\n      dup3\n        /* \"#utility.yul\":5828:5848   */\n      tag_41\n      jump\t// in\n    tag_112:\n        /* \"#utility.yul\":5823:5848   */\n      swap2\n      pop\n        /* \"#utility.yul\":5862:5882   */\n      tag_113\n        /* \"#utility.yul\":5880:5881   */\n      dup4\n        /* \"#utility.yul\":5862:5882   */\n      tag_41\n      jump\t// in\n    tag_113:\n        /* \"#utility.yul\":5857:5882   */\n      swap3\n      pop\n        /* \"#utility.yul\":5906:5907   */\n      dup3\n        /* \"#utility.yul\":5903:5904   */\n      dup3\n        /* \"#utility.yul\":5899:5908   */\n      sub\n        /* \"#utility.yul\":5891:5908   */\n      swap1\n      pop\n        /* \"#utility.yul\":5930:5931   */\n      dup2\n        /* \"#utility.yul\":5924:5928   */\n      dup2\n        /* \"#utility.yul\":5921:5932   */\n      gt\n        /* \"#utility.yul\":5918:5955   */\n      iszero\n      tag_114\n      jumpi\n        /* \"#utility.yul\":5935:5953   */\n      tag_115\n      tag_59\n      jump\t// in\n    tag_115:\n        /* \"#utility.yul\":5918:5955   */\n    tag_114:\n        /* \"#utility.yul\":5768:5962   */\n      swap3\n      swap2\n      pop\n      pop\n      jump\t// out\n        /* \"#utility.yul\":5968:6159   */\n    tag_34:\n        /* \"#utility.yul\":6008:6011   */\n      0x00\n        /* \"#utility.yul\":6027:6047   */\n      tag_117\n        /* \"#utility.yul\":6045:6046   */\n      dup3\n        /* \"#utility.yul\":6027:6047   */\n      tag_41\n      jump\t// in\n    tag_117:\n        /* \"#utility.yul\":6022:6047   */\n      swap2\n      pop\n        /* \"#utility.yul\":6061:6081   */\n      tag_118\n        /* \"#utility.yul\":6079:6080   */\n      dup4\n        /* \"#utility.yul\":6061:6081   */\n      tag_41\n      jump\t// in\n    tag_118:\n        /* \"#utility.yul\":6056:6081   */\n      swap3\n      pop\n        /* \"#utility.yul\":6104:6105   */\n      dup3\n        /* \"#utility.yul\":6101:6102   */\n      dup3\n        /* \"#utility.yul\":6097:6106   */\n      add\n        /* \"#utility.yul\":6090:6106   */\n      swap1\n      pop\n        /* \"#utility.yul\":6125:6128   */\n      dup1\n        /* \"#utility.yul\":6122:6123   */\n      dup3\n        /* \"#utility.yul\":6119:6129   */\n      gt\n        /* \"#utility.yul\":6116:6152   */\n      iszero\n      tag_119\n      jumpi\n        /* \"#utility.yul\":6132:6150   */\n      tag_120\n      tag_59\n      jump\t// in\n    tag_120:\n        /* \"#utility.yul\":6116:6152   */\n    tag_119:\n        /* \"#utility.yul\":5968:6159   */\n      swap3\n      swap2\n      pop\n      pop\n      jump\t// out\n        /* \"#utility.yul\":6165:6345   */\n    tag_38:\n        /* \"#utility.yul\":6213:6290   */\n      0x4e487b7100000000000000000000000000000000000000000000000000000000\n        /* \"#utility.yul\":6210:6211   */\n      0x00\n        /* \"#utility.yul\":6203:6291   */\n      mstore\n        /* \"#utility.yul\":6310:6314   */\n      0x01\n        /* \"#utility.yul\":6307:6308   */\n      0x04\n        /* \"#utility.yul\":6300:6315   */\n      mstore\n        /* \"#utility.yul\":6334:6338   */\n      0x24\n        /* \"#utility.yul\":6331:6332   */\n      0x00\n        /* \"#utility.yul\":6324:6339   */\n      revert\n\n    auxdata: 0xa2646970667358221220e1b7554075d496b82f8589d788f64e00d1b5401dd968cfed4157e3f5cb0db77364736f6c634300081a0033\n}\n",
				"bytecode": {
					"linkReferences": {},
					"object": "6080604052348015600e575f80fd5b503360015f6101000a81548173ffffffffffffffffffffffffffffffffffffffff021916908373ffffffffffffffffffffffffffffffffffffffff1602179055506107ef8061005c5f395ff3fe608060405234801561000f575f80fd5b506004361061003f575f3560e01c806312065fe014610043578063a9059cbb14610061578063d91921ed1461007d575b5f80fd5b61004b6100ad565b604051610058919061045b565b60405180910390f35b61007b600480360381019061007691906104fc565b6100f0565b005b6100976004803603810190610092919061053a565b6103ac565b6040516100a4919061045b565b60405180910390f35b5f805f3373ffffffffffffffffffffffffffffffffffffffff1673ffffffffffffffffffffffffffffffffffffffff1681526020019081526020015f2054905090565b3373ffffffffffffffffffffffffffffffffffffffff1660015f9054906101000a900473ffffffffffffffffffffffffffffffffffffffff1673ffffffffffffffffffffffffffffffffffffffff161461017f576040517f08c379a0000000000000000000000000000000000000000000000000000000008152600401610176906105bf565b60405180910390fd5b805f803373ffffffffffffffffffffffffffffffffffffffff1673ffffffffffffffffffffffffffffffffffffffff1681526020019081526020015f205410156101fe576040517f08c379a00000000000000000000000000000000000000000000000000000000081526004016101f59061064d565b60405180910390fd5b8173ffffffffffffffffffffffffffffffffffffffff163373ffffffffffffffffffffffffffffffffffffffff160361026c576040517f08c379a0000000000000000000000000000000000000000000000000000000008152600401610263906106db565b60405180910390fd5b5f805f3373ffffffffffffffffffffffffffffffffffffffff1673ffffffffffffffffffffffffffffffffffffffff1681526020019081526020015f20549050815f803373ffffffffffffffffffffffffffffffffffffffff1673ffffffffffffffffffffffffffffffffffffffff1681526020019081526020015f205f8282546102f79190610726565b92505081905550815f808573ffffffffffffffffffffffffffffffffffffffff1673ffffffffffffffffffffffffffffffffffffffff1681526020019081526020015f205f8282546103499190610759565b92505081905550818161035c9190610726565b5f803373ffffffffffffffffffffffffffffffffffffffff1673ffffffffffffffffffffffffffffffffffffffff1681526020019081526020015f2054146103a7576103a661078c565b5b505050565b5f815f803373ffffffffffffffffffffffffffffffffffffffff1673ffffffffffffffffffffffffffffffffffffffff1681526020019081526020015f205f8282546103f89190610759565b925050819055505f803373ffffffffffffffffffffffffffffffffffffffff1673ffffffffffffffffffffffffffffffffffffffff1681526020019081526020015f20549050919050565b5f819050919050565b61045581610443565b82525050565b5f60208201905061046e5f83018461044c565b92915050565b5f80fd5b5f73ffffffffffffffffffffffffffffffffffffffff82169050919050565b5f6104a182610478565b9050919050565b6104b181610497565b81146104bb575f80fd5b50565b5f813590506104cc816104a8565b92915050565b6104db81610443565b81146104e5575f80fd5b50565b5f813590506104f6816104d2565b92915050565b5f806040838503121561051257610511610474565b5b5f61051f858286016104be565b9250506020610530858286016104e8565b9150509250929050565b5f6020828403121561054f5761054e610474565b5b5f61055c848285016104e8565b91505092915050565b5f82825260208201905092915050565b7f596f7220617265206e6f7420746865206f776e657200000000000000000000005f82015250565b5f6105a9601583610565565b91506105b482610575565b602082019050919050565b5f6020820190508181035f8301526105d68161059d565b9050919050565b7f2121212121212121212121214e6f7420656e6f7567682042616c616e636521215f8201527f2121212121212100000000000000000000000000000000000000000000000000602082015250565b5f610637602783610565565b9150610642826105dd565b604082019050919050565b5f6020820190508181035f8301526106648161062b565b9050919050565b7f596f7520617265207573696e672073616d6520616464726573732e204368616e5f8201527f67652073656e64657220616464726573732e0000000000000000000000000000602082015250565b5f6106c5603283610565565b91506106d08261066b565b604082019050919050565b5f6020820190508181035f8301526106f2816106b9565b9050919050565b7f4e487b71000000000000000000000000000000000000000000000000000000005f52601160045260245ffd5b5f61073082610443565b915061073b83610443565b9250828203905081811115610753576107526106f9565b5b92915050565b5f61076382610443565b915061076e83610443565b9250828201905080821115610786576107856106f9565b5b92915050565b7f4e487b71000000000000000000000000000000000000000000000000000000005f52600160045260245ffdfea2646970667358221220e1b7554075d496b82f8589d788f64e00d1b5401dd968cfed4157e3f5cb0db77364736f6c634300081a0033",
					"opcodes": "PUSH1 0x80 PUSH1 0x40 MSTORE CALLVALUE DUP1 ISZERO PUSH1 0xE JUMPI PUSH0 DUP1 REVERT JUMPDEST POP CALLER PUSH1 0x1 PUSH0 PUSH2 0x100 EXP DUP2 SLOAD DUP2 PUSH20 0xFFFFFFFFFFFFFFFFFFFFFFFFFFFFFFFFFFFFFFFF MUL NOT AND SWAP1 DUP4 PUSH20 0xFFFFFFFFFFFFFFFFFFFFFFFFFFFFFFFFFFFFFFFF AND MUL OR SWAP1 SSTORE POP PUSH2 0x7EF DUP1 PUSH2 0x5C PUSH0 CODECOPY PUSH0 RETURN INVALID PUSH1 0x80 PUSH1 0x40 MSTORE CALLVALUE DUP1 ISZERO PUSH2 0xF JUMPI PUSH0 DUP1 REVERT JUMPDEST POP PUSH1 0x4 CALLDATASIZE LT PUSH2 0x3F JUMPI PUSH0 CALLDATALOAD PUSH1 0xE0 SHR DUP1 PUSH4 0x12065FE0 EQ PUSH2 0x43 JUMPI DUP1 PUSH4 0xA9059CBB EQ PUSH2 0x61 JUMPI DUP1 PUSH4 0xD91921ED EQ PUSH2 0x7D JUMPI JUMPDEST PUSH0 DUP1 REVERT JUMPDEST PUSH2 0x4B PUSH2 0xAD JUMP JUMPDEST PUSH1 0x40 MLOAD PUSH2 0x58 SWAP2 SWAP1 PUSH2 0x45B JUMP JUMPDEST PUSH1 0x40 MLOAD DUP1 SWAP2 SUB SWAP1 RETURN JUMPDEST PUSH2 0x7B PUSH1 0x4 DUP1 CALLDATASIZE SUB DUP2 ADD SWAP1 PUSH2 0x76 SWAP2 SWAP1 PUSH2 0x4FC JUMP JUMPDEST PUSH2 0xF0 JUMP JUMPDEST STOP JUMPDEST PUSH2 0x97 PUSH1 0x4 DUP1 CALLDATASIZE SUB DUP2 ADD SWAP1 PUSH2 0x92 SWAP2 SWAP1 PUSH2 0x53A JUMP JUMPDEST PUSH2 0x3AC JUMP JUMPDEST PUSH1 0x40 MLOAD PUSH2 0xA4 SWAP2 SWAP1 PUSH2 0x45B JUMP JUMPDEST PUSH1 0x40 MLOAD DUP1 SWAP2 SUB SWAP1 RETURN JUMPDEST PUSH0 DUP1 PUSH0 CALLER PUSH20 0xFFFFFFFFFFFFFFFFFFFFFFFFFFFFFFFFFFFFFFFF AND PUSH20 0xFFFFFFFFFFFFFFFFFFFFFFFFFFFFFFFFFFFFFFFF AND DUP2 MSTORE PUSH1 0x20 ADD SWAP1 DUP2 MSTORE PUSH1 0x20 ADD PUSH0 KECCAK256 SLOAD SWAP1 POP SWAP1 JUMP JUMPDEST CALLER PUSH20 0xFFFFFFFFFFFFFFFFFFFFFFFFFFFFFFFFFFFFFFFF AND PUSH1 0x1 PUSH0 SWAP1 SLOAD SWAP1 PUSH2 0x100 EXP SWAP1 DIV PUSH20 0xFFFFFFFFFFFFFFFFFFFFFFFFFFFFFFFFFFFFFFFF AND PUSH20 0xFFFFFFFFFFFFFFFFFFFFFFFFFFFFFFFFFFFFFFFF AND EQ PUSH2 0x17F JUMPI PUSH1 0x40 MLOAD PUSH32 0x8C379A000000000000000000000000000000000000000000000000000000000 DUP2 MSTORE PUSH1 0x4 ADD PUSH2 0x176 SWAP1 PUSH2 0x5BF JUMP JUMPDEST PUSH1 0x40 MLOAD DUP1 SWAP2 SUB SWAP1 REVERT JUMPDEST DUP1 PUSH0 DUP1 CALLER PUSH20 0xFFFFFFFFFFFFFFFFFFFFFFFFFFFFFFFFFFFFFFFF AND PUSH20 0xFFFFFFFFFFFFFFFFFFFFFFFFFFFFFFFFFFFFFFFF AND DUP2 MSTORE PUSH1 0x20 ADD SWAP1 DUP2 MSTORE PUSH1 0x20 ADD PUSH0 KECCAK256 SLOAD LT ISZERO PUSH2 0x1FE JUMPI PUSH1 0x40 MLOAD PUSH32 0x8C379A000000000000000000000000000000000000000000000000000000000 DUP2 MSTORE PUSH1 0x4 ADD PUSH2 0x1F5 SWAP1 PUSH2 0x64D JUMP JUMPDEST PUSH1 0x40 MLOAD DUP1 SWAP2 SUB SWAP1 REVERT JUMPDEST DUP2 PUSH20 0xFFFFFFFFFFFFFFFFFFFFFFFFFFFFFFFFFFFFFFFF AND CALLER PUSH20 0xFFFFFFFFFFFFFFFFFFFFFFFFFFFFFFFFFFFFFFFF AND SUB PUSH2 0x26C JUMPI PUSH1 0x40 MLOAD PUSH32 0x8C379A000000000000000000000000000000000000000000000000000000000 DUP2 MSTORE PUSH1 0x4 ADD PUSH2 0x263 SWAP1 PUSH2 0x6DB JUMP JUMPDEST PUSH1 0x40 MLOAD DUP1 SWAP2 SUB SWAP1 REVERT JUMPDEST PUSH0 DUP1 PUSH0 CALLER PUSH20 0xFFFFFFFFFFFFFFFFFFFFFFFFFFFFFFFFFFFFFFFF AND PUSH20 0xFFFFFFFFFFFFFFFFFFFFFFFFFFFFFFFFFFFFFFFF AND DUP2 MSTORE PUSH1 0x20 ADD SWAP1 DUP2 MSTORE PUSH1 0x20 ADD PUSH0 KECCAK256 SLOAD SWAP1 POP DUP2 PUSH0 DUP1 CALLER PUSH20 0xFFFFFFFFFFFFFFFFFFFFFFFFFFFFFFFFFFFFFFFF AND PUSH20 0xFFFFFFFFFFFFFFFFFFFFFFFFFFFFFFFFFFFFFFFF AND DUP2 MSTORE PUSH1 0x20 ADD SWAP1 DUP2 MSTORE PUSH1 0x20 ADD PUSH0 KECCAK256 PUSH0 DUP3 DUP3 SLOAD PUSH2 0x2F7 SWAP2 SWAP1 PUSH2 0x726 JUMP JUMPDEST SWAP3 POP POP DUP2 SWAP1 SSTORE POP DUP2 PUSH0 DUP1 DUP6 PUSH20 0xFFFFFFFFFFFFFFFFFFFFFFFFFFFFFFFFFFFFFFFF AND PUSH20 0xFFFFFFFFFFFFFFFFFFFFFFFFFFFFFFFFFFFFFFFF AND DUP2 MSTORE PUSH1 0x20 ADD SWAP1 DUP2 MSTORE PUSH1 0x20 ADD PUSH0 KECCAK256 PUSH0 DUP3 DUP3 SLOAD PUSH2 0x349 SWAP2 SWAP1 PUSH2 0x759 JUMP JUMPDEST SWAP3 POP POP DUP2 SWAP1 SSTORE POP DUP2 DUP2 PUSH2 0x35C SWAP2 SWAP1 PUSH2 0x726 JUMP JUMPDEST PUSH0 DUP1 CALLER PUSH20 0xFFFFFFFFFFFFFFFFFFFFFFFFFFFFFFFFFFFFFFFF AND PUSH20 0xFFFFFFFFFFFFFFFFFFFFFFFFFFFFFFFFFFFFFFFF AND DUP2 MSTORE PUSH1 0x20 ADD SWAP1 DUP2 MSTORE PUSH1 0x20 ADD PUSH0 KECCAK256 SLOAD EQ PUSH2 0x3A7 JUMPI PUSH2 0x3A6 PUSH2 0x78C JUMP JUMPDEST JUMPDEST POP POP POP JUMP JUMPDEST PUSH0 DUP2 PUSH0 DUP1 CALLER PUSH20 0xFFFFFFFFFFFFFFFFFFFFFFFFFFFFFFFFFFFFFFFF AND PUSH20 0xFFFFFFFFFFFFFFFFFFFFFFFFFFFFFFFFFFFFFFFF AND DUP2 MSTORE PUSH1 0x20 ADD SWAP1 DUP2 MSTORE PUSH1 0x20 ADD PUSH0 KECCAK256 PUSH0 DUP3 DUP3 SLOAD PUSH2 0x3F8 SWAP2 SWAP1 PUSH2 0x759 JUMP JUMPDEST SWAP3 POP POP DUP2 SWAP1 SSTORE POP PUSH0 DUP1 CALLER PUSH20 0xFFFFFFFFFFFFFFFFFFFFFFFFFFFFFFFFFFFFFFFF AND PUSH20 0xFFFFFFFFFFFFFFFFFFFFFFFFFFFFFFFFFFFFFFFF AND DUP2 MSTORE PUSH1 0x20 ADD SWAP1 DUP2 MSTORE PUSH1 0x20 ADD PUSH0 KECCAK256 SLOAD SWAP1 POP SWAP2 SWAP1 POP JUMP JUMPDEST PUSH0 DUP2 SWAP1 POP SWAP2 SWAP1 POP JUMP JUMPDEST PUSH2 0x455 DUP2 PUSH2 0x443 JUMP JUMPDEST DUP3 MSTORE POP POP JUMP JUMPDEST PUSH0 PUSH1 0x20 DUP3 ADD SWAP1 POP PUSH2 0x46E PUSH0 DUP4 ADD DUP5 PUSH2 0x44C JUMP JUMPDEST SWAP3 SWAP2 POP POP JUMP JUMPDEST PUSH0 DUP1 REVERT JUMPDEST PUSH0 PUSH20 0xFFFFFFFFFFFFFFFFFFFFFFFFFFFFFFFFFFFFFFFF DUP3 AND SWAP1 POP SWAP2 SWAP1 POP JUMP JUMPDEST PUSH0 PUSH2 0x4A1 DUP3 PUSH2 0x478 JUMP JUMPDEST SWAP1 POP SWAP2 SWAP1 POP JUMP JUMPDEST PUSH2 0x4B1 DUP2 PUSH2 0x497 JUMP JUMPDEST DUP2 EQ PUSH2 0x4BB JUMPI PUSH0 DUP1 REVERT JUMPDEST POP JUMP JUMPDEST PUSH0 DUP2 CALLDATALOAD SWAP1 POP PUSH2 0x4CC DUP2 PUSH2 0x4A8 JUMP JUMPDEST SWAP3 SWAP2 POP POP JUMP JUMPDEST PUSH2 0x4DB DUP2 PUSH2 0x443 JUMP JUMPDEST DUP2 EQ PUSH2 0x4E5 JUMPI PUSH0 DUP1 REVERT JUMPDEST POP JUMP JUMPDEST PUSH0 DUP2 CALLDATALOAD SWAP1 POP PUSH2 0x4F6 DUP2 PUSH2 0x4D2 JUMP JUMPDEST SWAP3 SWAP2 POP POP JUMP JUMPDEST PUSH0 DUP1 PUSH1 0x40 DUP4 DUP6 SUB SLT ISZERO PUSH2 0x512 JUMPI PUSH2 0x511 PUSH2 0x474 JUMP JUMPDEST JUMPDEST PUSH0 PUSH2 0x51F DUP6 DUP3 DUP7 ADD PUSH2 0x4BE JUMP JUMPDEST SWAP3 POP POP PUSH1 0x20 PUSH2 0x530 DUP6 DUP3 DUP7 ADD PUSH2 0x4E8 JUMP JUMPDEST SWAP2 POP POP SWAP3 POP SWAP3 SWAP1 POP JUMP JUMPDEST PUSH0 PUSH1 0x20 DUP3 DUP5 SUB SLT ISZERO PUSH2 0x54F JUMPI PUSH2 0x54E PUSH2 0x474 JUMP JUMPDEST JUMPDEST PUSH0 PUSH2 0x55C DUP5 DUP3 DUP6 ADD PUSH2 0x4E8 JUMP JUMPDEST SWAP2 POP POP SWAP3 SWAP2 POP POP JUMP JUMPDEST PUSH0 DUP3 DUP3 MSTORE PUSH1 0x20 DUP3 ADD SWAP1 POP SWAP3 SWAP2 POP POP JUMP JUMPDEST PUSH32 0x596F7220617265206E6F7420746865206F776E65720000000000000000000000 PUSH0 DUP3 ADD MSTORE POP JUMP JUMPDEST PUSH0 PUSH2 0x5A9 PUSH1 0x15 DUP4 PUSH2 0x565 JUMP JUMPDEST SWAP2 POP PUSH2 0x5B4 DUP3 PUSH2 0x575 JUMP JUMPDEST PUSH1 0x20 DUP3 ADD SWAP1 POP SWAP2 SWAP1 POP JUMP JUMPDEST PUSH0 PUSH1 0x20 DUP3 ADD SWAP1 POP DUP2 DUP2 SUB PUSH0 DUP4 ADD MSTORE PUSH2 0x5D6 DUP2 PUSH2 0x59D JUMP JUMPDEST SWAP1 POP SWAP2 SWAP1 POP JUMP JUMPDEST PUSH32 0x2121212121212121212121214E6F7420656E6F7567682042616C616E63652121 PUSH0 DUP3 ADD MSTORE PUSH32 0x2121212121212100000000000000000000000000000000000000000000000000 PUSH1 0x20 DUP3 ADD MSTORE POP JUMP JUMPDEST PUSH0 PUSH2 0x637 PUSH1 0x27 DUP4 PUSH2 0x565 JUMP JUMPDEST SWAP2 POP PUSH2 0x642 DUP3 PUSH2 0x5DD JUMP JUMPDEST PUSH1 0x40 DUP3 ADD SWAP1 POP SWAP2 SWAP1 POP JUMP JUMPDEST PUSH0 PUSH1 0x20 DUP3 ADD SWAP1 POP DUP2 DUP2 SUB PUSH0 DUP4 ADD MSTORE PUSH2 0x664 DUP2 PUSH2 0x62B JUMP JUMPDEST SWAP1 POP SWAP2 SWAP1 POP JUMP JUMPDEST PUSH32 0x596F7520617265207573696E672073616D6520616464726573732E204368616E PUSH0 DUP3 ADD MSTORE PUSH32 0x67652073656E64657220616464726573732E0000000000000000000000000000 PUSH1 0x20 DUP3 ADD MSTORE POP JUMP JUMPDEST PUSH0 PUSH2 0x6C5 PUSH1 0x32 DUP4 PUSH2 0x565 JUMP JUMPDEST SWAP2 POP PUSH2 0x6D0 DUP3 PUSH2 0x66B JUMP JUMPDEST PUSH1 0x40 DUP3 ADD SWAP1 POP SWAP2 SWAP1 POP JUMP JUMPDEST PUSH0 PUSH1 0x20 DUP3 ADD SWAP1 POP DUP2 DUP2 SUB PUSH0 DUP4 ADD MSTORE PUSH2 0x6F2 DUP2 PUSH2 0x6B9 JUMP JUMPDEST SWAP1 POP SWAP2 SWAP1 POP JUMP JUMPDEST PUSH32 0x4E487B7100000000000000000000000000000000000000000000000000000000 PUSH0 MSTORE PUSH1 0x11 PUSH1 0x4 MSTORE PUSH1 0x24 PUSH0 REVERT JUMPDEST PUSH0 PUSH2 0x730 DUP3 PUSH2 0x443 JUMP JUMPDEST SWAP2 POP PUSH2 0x73B DUP4 PUSH2 0x443 JUMP JUMPDEST SWAP3 POP DUP3 DUP3 SUB SWAP1 POP DUP2 DUP2 GT ISZERO PUSH2 0x753 JUMPI PUSH2 0x752 PUSH2 0x6F9 JUMP JUMPDEST JUMPDEST SWAP3 SWAP2 POP POP JUMP JUMPDEST PUSH0 PUSH2 0x763 DUP3 PUSH2 0x443 JUMP JUMPDEST SWAP2 POP PUSH2 0x76E DUP4 PUSH2 0x443 JUMP JUMPDEST SWAP3 POP DUP3 DUP3 ADD SWAP1 POP DUP1 DUP3 GT ISZERO PUSH2 0x786 JUMPI PUSH2 0x785 PUSH2 0x6F9 JUMP JUMPDEST JUMPDEST SWAP3 SWAP2 POP POP JUMP JUMPDEST PUSH32 0x4E487B7100000000000000000000000000000000000000000000000000000000 PUSH0 MSTORE PUSH1 0x1 PUSH1 0x4 MSTORE PUSH1 0x24 PUSH0 REVERT INVALID LOG2 PUSH5 0x6970667358 0x22 SLT KECCAK256 0xE1 0xB7 SSTORE BLOCKHASH PUSH22 0xD496B82F8589D788F64E00D1B5401DD968CFED4157E3 CREATE2 0xCB 0xD 0xB7 PUSH20 0x64736F6C634300081A0033000000000000000000 "
				},
				"gasEstimates": {
					"creation": {
						"codeDepositCost": "406200",
						"executionCost": "24706",
						"totalCost": "430906"
					},
					"external": {
						"addBalance(uint256)": "infinite",
						"getBalance()": "2497",
						"transfer(address,uint256)": "infinite"
					}
				},
				"methodIdentifiers": {
					"addBalance(uint256)": "d91921ed",
					"getBalance()": "12065fe0",
					"transfer(address,uint256)": "a9059cbb"
				}
			},
			"storageLayout": {
				"storage": [
					{
						"astId": 5,
						"contract": "contracts/Mini-Bank-Contract.sol:bank",
						"label": "balance",
						"offset": 0,
						"slot": "0",
						"type": "t_mapping(t_address,t_uint256)"
					},
					{
						"astId": 7,
						"contract": "contracts/Mini-Bank-Contract.sol:bank",
						"label": "owner",
						"offset": 0,
						"slot": "1",
						"type": "t_address"
					}
				],
				"types": {
					"t_address": {
						"encoding": "inplace",
						"label": "address",
						"numberOfBytes": "20"
					},
					"t_mapping(t_address,t_uint256)": {
						"encoding": "mapping",
						"key": "t_address",
						"label": "mapping(address => uint256)",
						"numberOfBytes": "32",
						"value": "t_uint256"
					},
					"t_uint256": {
						"encoding": "inplace",
						"label": "uint256",
						"numberOfBytes": "32"
					}
				}
			},
			"userdoc": {
				"kind": "user",
				"methods": {},
				"version": 1
			}
		}
	}
}